P  CODE 00
P  UNITS CUST 0
P  arrayDim   N
317GND              VIA        MD0118PA00X-026378Y-011614X0236Y0000R000S1557371987
317GND              VIA        MD0118PA00X-047539Y+013386X0236Y0000R000S1557371987
317GND              VIA        MD0118PA00X-013091Y+008760X0236Y0000R000S1557371987
317GND              VIA        MD0118PA00X-048622Y-002067X0236Y0000R000S1557371987
317GND              VIA        MD0118PA00X-016535Y+005020X0236Y0000R000S1557371987
317GND              VIA        MD0118PA00X-033465Y+001575X0236Y0000R000S1557371987
317GND              VIA        MD0118PA00X-028248Y+009941X0236Y0000R000S1557371987
317GND              VIA        MD0118PA00X-030413Y-008563X0236Y0000R000S1557371987
317GND              VIA        MD0118PA00X-015650Y+018209X0236Y0000R000S1557371987
317GND              VIA        MD0118PA00X-026083Y-006594X0236Y0000R000S1557371987
317GND              VIA        MD0118PA00X-020768Y-003642X0236Y0000R000S1557371987
317GND              VIA        MD0118PA00X-022736Y-017126X0236Y0000R000S1557371987
317GND              VIA        MD0118PA00X-018996Y+002559X0236Y0000R000S1557371987
317GND              VIA        MD0118PA00X-019094Y+012894X0236Y0000R000S1557371987
317GND              VIA        MD0118PA00X-019390Y+006594X0236Y0000R000S1557371987
317GND              VIA        MD0118PA00X-018307Y-013878X0236Y0000R000S1557371987
317GND              VIA        MD0118PA00X-031988Y-001181X0236Y0000R000S1557371987
317GND              VIA        MD0118PA00X-041240Y+006791X0236Y0000R000S1557371987
317GND              VIA        MD0118PA00X-033169Y+008071X0236Y0000R000S1557371987
317GND              VIA        MD0118PA00X-020079Y+004528X0236Y0000R000S1557371987
317GND              VIA        MD0118PA00X-021850Y-005709X0236Y0000R000S1557371987
317GND              VIA        MD0118PA00X-028346Y+013681X0236Y0000R000S1557371987
317GND              VIA        MD0118PA00X-032677Y-003248X0236Y0000R000S1557371987
317GND              VIA        MD0118PA00X-033366Y-015551X0236Y0000R000S1557371987
317GND              VIA        MD0118PA00X-030315Y-015157X0236Y0000R000S1557371987
317GND              VIA        MD0118PA00X-024508Y+003051X0236Y0000R000S1557371987
317GND              VIA        MD0118PA00X-016240Y+000197X0236Y0000R000S1557371987
317GND              VIA        MD0118PA00X-014665Y-010236X0236Y0000R000S1557371987
317GND              VIA        MD0118PA00X-048622Y-017028X0236Y0000R000S1557371987
317GND              VIA        MD0118PA00X-027165Y+008071X0236Y0000R000S1557371987
317GND              VIA        MD0118PA00X-043012Y-008661X0236Y0000R000S1557371987
317GND              VIA        MD0118PA00X-035138Y+000000X0236Y0000R000S1557371987
317GND              VIA        MD0118PA00X-042913Y+004724X0236Y0000R000S1557371987
317GND              VIA        MD0118PA00X-023819Y-010433X0236Y0000R000S1557371987
317GND              VIA        MD0118PA00X-023622Y+019291X0236Y0000R000S1557371987
317GND              VIA        MD0118PA00X-044193Y-006496X0236Y0000R000S1557371987
317GND              VIA        MD0118PA00X-024311Y+009941X0236Y0000R000S1557371987
317GND              VIA        MD0118PA00X-035531Y-007776X0236Y0000R000S1557371987
317GND              VIA        MD0118PA00X-031791Y-000098X0236Y0000R000S1557371987
317GND              VIA        MD0118PA00X-019390Y+005906X0236Y0000R000S1557371987
317GND              VIA        MD0118PA00X-018406Y-012402X0236Y0000R000S1557371987
317GND              VIA        MD0118PA00X-030906Y-014075X0236Y0000R000S1557371987
317GND              VIA        MD0118PA00X-034744Y-002756X0236Y0000R000S1557371987
317GND              VIA        MD0118PA00X-044390Y-004626X0236Y0000R000S1557371987
317GND              VIA        MD0118PA00X-030020Y+017618X0236Y0000R000S1557371987
317GND              VIA        MD0118PA00X-023720Y-012598X0236Y0000R000S1557371987
317GND              VIA        MD0118PA00X-028346Y+006791X0236Y0000R000S1557371987
317GND              VIA        MD0118PA00X-028346Y+007579X0236Y0000R000S1557371987
317GND              VIA        MD0118PA00X-025492Y-010236X0236Y0000R000S1557371987
317GND              VIA        MD0118PA00X-023228Y+006496X0236Y0000R000S1557371987
317GND              VIA        MD0118PA00X-015453Y+015846X0236Y0000R000S1557371987
317GND              VIA        MD0118PA00X-022638Y+002264X0236Y0000R000S1557371987
317GND              VIA        MD0118PA00X-038583Y-000492X0236Y0000R000S1557371987
317GND              VIA        MD0118PA00X-016240Y-010236X0236Y0000R000S1557371987
317GND              VIA        MD0118PA00X-033169Y+012303X0236Y0000R000S1557371987
317GND              VIA        MD0118PA00X-047539Y+009941X0236Y0000R000S1557371987
317GND              VIA        MD0118PA00X-045374Y-014862X0236Y0000R000S1557371987
317GND              VIA        MD0118PA00X-021063Y-004134X0236Y0000R000S1557371987
317GND              VIA        MD0118PA00X-023228Y+010827X0236Y0000R000S1557371987
317GND              VIA        MD0118PA00X-021063Y-012402X0236Y0000R000S1557371987
317GND              VIA        MD0118PA00X-023524Y+017913X0236Y0000R000S1557371987
317GND              VIA        MD0118PA00X-034055Y+004724X0236Y0000R000S1557371987
317GND              VIA        MD0118PA00X-030118Y+008071X0236Y0000R000S1557371987
317GND              VIA        MD0118PA00X-034941Y+000689X0236Y0000R000S1557371987
317GND              VIA        MD0118PA00X-014764Y+015059X0236Y0000R000S1557371987
317GND              VIA        MD0118PA00X-034154Y+017618X0236Y0000R000S1557371987
317GND              VIA        MD0118PA00X-028346Y+014665X0236Y0000R000S1557371987
317GND              VIA        MD0118PA00X-022539Y+001280X0236Y0000R000S1557371987
317GND              VIA        MD0118PA00X-013583Y+006791X0236Y0000R000S1557371987
317GND              VIA        MD0118PA00X-028150Y-016437X0236Y0000R000S1557371987
317GND              VIA        MD0118PA00X-019488Y-015846X0236Y0000R000S1557371987
317GND              VIA        MD0118PA00X-023819Y+006988X0236Y0000R000S1557371987
317GND              VIA        MD0118PA00X-014764Y+002854X0236Y0000R000S1557371987
317GND              VIA        MD0118PA00X-023819Y-011024X0236Y0000R000S1557371987
317GND              VIA        MD0118PA00X-043012Y-010728X0236Y0000R000S1557371987
317GND              VIA        MD0118PA00X-043602Y-005020X0236Y0000R000S1557371987
317GND              VIA        MD0118PA00X-013583Y+004331X0236Y0000R000S1557371987
317GND              VIA        MD0118PA00X-026280Y-003839X0236Y0000R000S1557371987
317GND              VIA        MD0118PA00X-033366Y-005315X0236Y0000R000S1557371987
317GND              VIA        MD0118PA00X-039764Y+002559X0236Y0000R000S1557371987
317GND              VIA        MD0118PA00X-012598Y+010630X0236Y0000R000S1557371987
317GND              VIA        MD0118PA00X-017028Y+000591X0236Y0000R000S1557371987
317GND              VIA        MD0118PA00X-036713Y-012795X0236Y0000R000S1557371987
317GND              VIA        MD0118PA00X-020669Y-017126X0236Y0000R000S1557371987
317GND              VIA        MD0118PA00X-045768Y-014272X0236Y0000R000S1557371987
317GND              VIA        MD0118PA00X-012795Y+007283X0236Y0000R000S1557371987
317GND              VIA        MD0118PA00X-029626Y-016437X0236Y0000R000S1557371987
317GND              VIA        MD0118PA00X-035039Y+008563X0236Y0000R000S1557371987
317GND              VIA        MD0118PA00X-034744Y-004626X0236Y0000R000S1557371987
317GND              VIA        MD0118PA00X-012303Y+012697X0236Y0000R000S1557371987
317GND              VIA        MD0118PA00X-037402Y+006594X0236Y0000R000S1557371987
317GND              VIA        MD0118PA00X-043307Y+015551X0236Y0000R000S1557371987
317GND              VIA        MD0118PA00X-018406Y+012894X0236Y0000R000S1557371987
317GND              VIA        MD0118PA00X-015453Y+011516X0236Y0000R000S1557371987
317GND              VIA        MD0118PA00X-045768Y+009843X0236Y0000R000S1557371987
317GND              VIA        MD0118PA00X-022539Y+007677X0236Y0000R000S1557371987
317GND              VIA        MD0118PA00X-014862Y+016535X0236Y0000R000S1557371987
317GND              VIA        MD0118PA00X-037500Y+005118X0236Y0000R000S1557371987
317GND              VIA        MD0118PA00X-037008Y+004429X0236Y0000R000S1557371987
317GND              VIA        MD0118PA00X-016634Y+003642X0236Y0000R000S1557371987
317GND              VIA        MD0118PA00X-029331Y-011909X0236Y0000R000S1557371987
317GND              VIA        MD0118PA00X-024902Y+008071X0236Y0000R000S1557371987
317GND              VIA        MD0118PA00X-013091Y+014272X0236Y0000R000S1557371987
317GND              VIA        MD0118PA00X-037598Y-015256X0236Y0000R000S1557371987
317GND              VIA        MD0118PA00X-045866Y+013287X0236Y0000R000S1557371987
317GND              VIA        MD0118PA00X-036220Y+001083X0236Y0000R000S1557371987
317GND              VIA        MD0118PA00X-047047Y-002854X0236Y0000R000S1557371987
317GND              VIA        MD0118PA00X-030413Y-010630X0236Y0000R000S1557371987
317GND              VIA        MD0118PA00X-047244Y-006988X0236Y0000R000S1557371987
317GND              VIA        MD0118PA00X-030807Y-000689X0236Y0000R000S1557371987
317GND              VIA        MD0118PA00X-027756Y+000492X0236Y0000R000S1557371987
317GND              VIA        MD0118PA00X-029232Y+006791X0236Y0000R000S1557371987
317GND              VIA        MD0118PA00X-016634Y-003248X0236Y0000R000S1557371987
317GND              VIA        MD0118PA00X-015453Y-000591X0236Y0000R000S1557371987
317GND              VIA        MD0118PA00X-017520Y+005413X0236Y0000R000S1557371987
317GND              VIA        MD0118PA00X-041043Y-006791X0236Y0000R000S1557371987
317GND              VIA        MD0118PA00X-044685Y-014173X0236Y0000R000S1557371987
317GND              VIA        MD0118PA00X-029311Y-011319X0236Y0000R000S1557371987
317GND              VIA        MD0118PA00X-035138Y+013976X0236Y0000R000S1557371987
317GND              VIA        MD0118PA00X-014961Y+007283X0236Y0000R000S1557371987
317GND              VIA        MD0118PA00X-023917Y-005610X0236Y0000R000S1557371987
317GND              VIA        MD0118PA00X-033169Y+016339X0236Y0000R000S1557371987
317GND              VIA        MD0118PA00X-026772Y+006201X0236Y0000R000S1557371987
317GND              VIA        MD0118PA00X-025689Y+009941X0236Y0000R000S1557371987
317GND              VIA        MD0118PA00X-048524Y+019094X0236Y0000R000S1557371987
317GND              VIA        MD0118PA00X-034350Y-009547X0236Y0000R000S1557371987
317GND              VIA        MD0118PA00X-020079Y+000689X0236Y0000R000S1557371987
317GND              VIA        MD0118PA00X-046555Y+016634X0236Y0000R000S1557371987
317GND              VIA        MD0118PA00X-021654Y+018406X0236Y0000R000S1557371987
317GND              VIA        MD0118PA00X-030709Y-001181X0236Y0000R000S1557371987
317GND              VIA        MD0118PA00X-026772Y-015551X0236Y0000R000S1557371987
317GND              VIA        MD0118PA00X-017815Y-008661X0236Y0000R000S1557371987
317GND              VIA        MD0118PA00X-032776Y-004626X0236Y0000R000S1557371987
317GND              VIA        MD0118PA00X-025689Y+011614X0236Y0000R000S1557371987
317GND              VIA        MD0118PA00X-027264Y+009941X0236Y0000R000S1557371987
317GND              VIA        MD0118PA00X-033169Y+013976X0236Y0000R000S1557371987
317GND              VIA        MD0118PA00X-036024Y+012008X0236Y0000R000S1557371987
317GND              VIA        MD0118PA00X-031102Y-005906X0236Y0000R000S1557371987
317GND              VIA        MD0118PA00X-048524Y-014272X0236Y0000R000S1557371987
317GND              VIA        MD0118PA00X-045768Y-012598X0236Y0000R000S1557371987
317GND              VIA        MD0118PA00X-014665Y-001772X0236Y0000R000S1557371987
317GND              VIA        MD0118PA00X-019685Y-008465X0236Y0000R000S1557371987
317GND              VIA        MD0118PA00X-023130Y+000689X0236Y0000R000S1557371987
317GND              VIA        MD0118PA00X-041634Y-012795X0236Y0000R000S1557371987
317GND              VIA        MD0118PA00X-035236Y+010138X0236Y0000R000S1557371987
317GND              VIA        MD0118PA00X-022244Y+003937X0236Y0000R000S1557371987
317GND              VIA        MD0118PA00X-023622Y-015551X0236Y0000R000S1557371987
317GND              VIA        MD0118PA00X-024409Y+018602X0236Y0000R000S1557371987
317GND              VIA        MD0118PA00X-031102Y+008071X0236Y0000R000S1557371987
317GND              VIA        MD0118PA00X-035236Y+007087X0236Y0000R000S1557371987
317GND              VIA        MD0118PA00X-020374Y-007874X0236Y0000R000S1557371987
317GND              VIA        MD0118PA00X-032480Y-002362X0236Y0000R000S1557371987
317GND              VIA        MD0118PA00X-027461Y-014075X0236Y0000R000S1557371987
317GND              VIA        MD0118PA00X-030118Y+007382X0236Y0000R000S1557371987
317GND              VIA        MD0118PA00X-044587Y+011713X0236Y0000R000S1557371987
317GND              VIA        MD0118PA00X-037697Y-000689X0236Y0000R000S1557371987
317GND              VIA        MD0118PA00X-033169Y+004724X0236Y0000R000S1557371987
317GND              VIA        MD0118PA00X-029429Y-010728X0236Y0000R000S1557371987
317GND              VIA        MD0118PA00X-024213Y-002657X0236Y0000R000S1557371987
317GND              VIA        MD0118PA00X-035236Y+004724X0236Y0000R000S1557371987
317GND              VIA        MD0118PA00X-016437Y-016929X0236Y0000R000S1557371987
317GND              VIA        MD0118PA00X-046654Y-005512X0236Y0000R000S1557371987
317GND              VIA        MD0118PA00X-015945Y+013091X0236Y0000R000S1557371987
317GND              VIA        MD0118PA00X-020276Y-010138X0236Y0000R000S1557371987
317GND              VIA        MD0118PA00X-035138Y-000689X0236Y0000R000S1557371987
317GND              VIA        MD0118PA00X-035138Y+016339X0236Y0000R000S1557371987
317GND              VIA        MD0118PA00X-018307Y-015846X0236Y0000R000S1557371987
317GND              VIA        MD0118PA00X-015551Y-009941X0236Y0000R000S1557371987
317GND              VIA        MD0118PA00X-013780Y+014567X0236Y0000R000S1557371987
317GND              VIA        MD0118PA00X-047441Y-006496X0236Y0000R000S1557371987
317GND              VIA        MD0118PA00X-026083Y+006890X0236Y0000R000S1557371987
317GND              VIA        MD0118PA00X-020965Y-002264X0236Y0000R000S1557371987
317GND              VIA        MD0118PA00X-030118Y+011024X0236Y0000R000S1557371987
317GND              VIA        MD0118PA00X-042323Y-012894X0236Y0000R000S1557371987
317GND              VIA        MD0118PA00X-027362Y-015157X0236Y0000R000S1557371987
317GND              VIA        MD0118PA00X-024902Y-006693X0236Y0000R000S1557371987
317GND              VIA        MD0118PA00X-014665Y-006890X0236Y0000R000S1557371987
317GND              VIA        MD0118PA00X-029921Y-008661X0236Y0000R000S1557371987
317GND              VIA        MD0118PA00X-024409Y-011516X0236Y0000R000S1557371987
317GND              VIA        MD0118PA00X-024508Y+004724X0236Y0000R000S1557371987
317GND              VIA        MD0118PA00X-032185Y+006398X0236Y0000R000S1557371987
317GND              VIA        MD0118PA00X-026870Y-013583X0236Y0000R000S1557371987
317GND              VIA        MD0118PA00X-018012Y-006693X0236Y0000R000S1557371987
317GND              VIA        MD0118PA00X-024311Y-016339X0236Y0000R000S1557371987
317GND              VIA        MD0118PA00X-048130Y+010630X0236Y0000R000S1557371987
317GND              VIA        MD0118PA00X-019587Y-007776X0236Y0000R000S1557371987
317GND              VIA        MD0118PA00X-017126Y+018110X0236Y0000R000S1557371987
317GND              VIA        MD0118PA00X-027756Y-001280X0236Y0000R000S1557371987
317GND              VIA        MD0118PA00X-040748Y+014075X0236Y0000R000S1557371987
317GND              VIA        MD0118PA00X-015059Y-017126X0236Y0000R000S1557371987
317GND              VIA        MD0118PA00X-040256Y-009449X0236Y0000R000S1557371987
317GND              VIA        MD0118PA00X-027362Y-006594X0236Y0000R000S1557371987
317GND              VIA        MD0118PA00X-029528Y+002461X0236Y0000R000S1557371987
317GND              VIA        MD0118PA00X-036516Y-015551X0236Y0000R000S1557371987
317GND              VIA        MD0118PA00X-033465Y-009252X0236Y0000R000S1557371987
317GND              VIA        MD0118PA00X-021850Y+001280X0236Y0000R000S1557371987
317GND              VIA        MD0118PA00X-042126Y+004823X0236Y0000R000S1557371987
317GND              VIA        MD0118PA00X-029528Y-010138X0236Y0000R000S1557371987
317GND              VIA        MD0118PA00X-036417Y-008563X0236Y0000R000S1557371987
317GND              VIA        MD0118PA00X-017421Y+004823X0236Y0000R000S1557371987
317GND              VIA        MD0118PA00X-047539Y-004626X0236Y0000R000S1557371987
317GND              VIA        MD0118PA00X-017028Y-017126X0236Y0000R000S1557371987
317GND              VIA        MD0118PA00X-035138Y+015354X0236Y0000R000S1557371987
317GND              VIA        MD0118PA00X-046457Y+003248X0236Y0000R000S1557371987
317GND              VIA        MD0118PA00X-022736Y-016339X0236Y0000R000S1557371987
317GND              VIA        MD0118PA00X-029528Y+005709X0236Y0000R000S1557371987
317GND              VIA        MD0118PA00X-023130Y+001476X0236Y0000R000S1557371987
317GND              VIA        MD0118PA00X-021161Y-002559X0236Y0000R000S1557371987
317GND              VIA        MD0118PA00X-019094Y+015551X0236Y0000R000S1557371987
317GND              VIA        MD0118PA00X-033169Y-006594X0236Y0000R000S1557371987
317GND              VIA        MD0118PA00X-031988Y-007382X0236Y0000R000S1557371987
317GND              VIA        MD0118PA00X-043799Y+000886X0236Y0000R000S1557371987
317GND              VIA        MD0118PA00X-028248Y+011614X0236Y0000R000S1557371987
317GND              VIA        MD0118PA00X-020768Y+018012X0236Y0000R000S1557371987
317GND              VIA        MD0118PA00X-029035Y-009744X0236Y0000R000S1557371987
317GND              VIA        MD0118PA00X-042126Y+002362X0236Y0000R000S1557371987
317GND              VIA        MD0118PA00X-017028Y-012992X0236Y0000R000S1557371987
317GND              VIA        MD0118PA00X-020374Y+003248X0236Y0000R000S1557371987
317GND              VIA        MD0118PA00X-034055Y+016339X0236Y0000R000S1557371987
317GND              VIA        MD0118PA00X-041831Y+017618X0236Y0000R000S1557371987
317GND              VIA        MD0118PA00X-021555Y+002165X0236Y0000R000S1557371987
317GND              VIA        MD0118PA00X-043307Y+016634X0236Y0000R000S1557371987
317GND              VIA        MD0118PA00X-020768Y+016339X0236Y0000R000S1557371987
317GND              VIA        MD0118PA00X-012205Y+007480X0236Y0000R000S1557371987
317GND              VIA        MD0118PA00X-016142Y-006496X0236Y0000R000S1557371987
317GND              VIA        MD0118PA00X-031398Y-001181X0236Y0000R000S1557371987
317GND              VIA        MD0118PA00X-014764Y+012205X0236Y0000R000S1557371987
317GND              VIA        MD0118PA00X-029035Y-006201X0236Y0000R000S1557371987
317GND              VIA        MD0118PA00X-042224Y+003051X0236Y0000R000S1557371987
317GND              VIA        MD0118PA00X-043799Y+005217X0236Y0000R000S1557371987
317GND              VIA        MD0118PA00X-035728Y+004232X0236Y0000R000S1557371987
317GND              VIA        MD0118PA00X-035827Y-000689X0236Y0000R000S1557371987
317GND              VIA        MD0118PA00X-027264Y+011614X0236Y0000R000S1557371987
317GND              VIA        MD0118PA00X-039665Y-002953X0236Y0000R000S1557371987
317GND              VIA        MD0118PA00X-036024Y+013583X0236Y0000R000S1557371987
317GND              VIA        MD0118PA00X-034350Y-008465X0236Y0000R000S1557371987
317GND              VIA        MD0118PA00X-040157Y-015059X0236Y0000R000S1557371987
317GND              VIA        MD0118PA00X-022539Y+000098X0236Y0000R000S1557371987
317GND              VIA        MD0118PA00X-017224Y+001969X0236Y0000R000S1557371987
317GND              VIA        MD0118PA00X-030118Y+013976X0236Y0000R000S1557371987
317GND              VIA        MD0118PA00X-014469Y+000295X0236Y0000R000S1557371987
317GND              VIA        MD0118PA00X-033268Y+000591X0236Y0000R000S1557371987
317GND              VIA        MD0118PA00X-043504Y-015256X0236Y0000R000S1557371987
317GND              VIA        MD0118PA00X-028346Y+017618X0236Y0000R000S1557371987
317GND              VIA        MD0118PA00X-031102Y+017618X0236Y0000R000S1557371987
317GND              VIA        MD0118PA00X-025000Y-005610X0236Y0000R000S1557371987
317GND              VIA        MD0118PA00X-016634Y-002559X0236Y0000R000S1557371987
317GND              VIA        MD0118PA00X-037303Y-013484X0236Y0000R000S1557371987
317GND              VIA        MD0118PA00X-016634Y-003839X0236Y0000R000S1557371987
317GND              VIA        MD0118PA00X-031299Y-008760X0236Y0000R000S1557371987
317GND              VIA        MD0118PA00X-044980Y+003839X0236Y0000R000S1557371987
317GND              VIA        MD0118PA00X-021949Y-006693X0236Y0000R000S1557371987
317GND              VIA        MD0118PA00X-014469Y+003346X0236Y0000R000S1557371987
317GND              VIA        MD0118PA00X-027854Y-011909X0236Y0000R000S1557371987
317GND              VIA        MD0118PA00X-036811Y-010433X0236Y0000R000S1557371987
317GND              VIA        MD0118PA00X-018898Y-016339X0236Y0000R000S1557371987
317GND              VIA        MD0118PA00X-032283Y-005709X0236Y0000R000S1557371987
317GND              VIA        MD0118PA00X-038287Y+017520X0236Y0000R000S1557371987
317GND              VIA        MD0118PA00X-012303Y+013386X0236Y0000R000S1557371987
317GND              VIA        MD0118PA00X-035827Y+000000X0236Y0000R000S1557371987
317GND              VIA        MD0118PA00X-033563Y-012500X0236Y0000R000S1557371987
317GND              VIA        MD0118PA00X-015748Y+012205X0236Y0000R000S1557371987
317GND              VIA        MD0118PA00X-028642Y+004823X0236Y0000R000S1557371987
317GND              VIA        MD0118PA00X-016732Y+011614X0236Y0000R000S1557371987
317GND              VIA        MD0118PA00X-036122Y+007874X0236Y0000R000S1557371987
317GND              VIA        MD0118PA00X-042126Y-004823X0236Y0000R000S1557371987
317GND              VIA        MD0118PA00X-033169Y+017618X0236Y0000R000S1557371987
317GND              VIA        MD0118PA00X-024311Y+011614X0236Y0000R000S1557371987
317GND              VIA        MD0118PA00X-048819Y+009941X0236Y0000R000S1557371987
317GND              VIA        MD0118PA00X-044488Y+015354X0236Y0000R000S1557371987
317GND              VIA        MD0118PA00X-016634Y+008563X0236Y0000R000S1557371987
317GND              VIA        MD0118PA00X-015354Y-011417X0236Y0000R000S1557371987
317GND              VIA        MD0118PA00X-016831Y+008169X0236Y0000R000S1557371987
317GND              VIA        MD0118PA00X-043209Y+018996X0236Y0000R000S1557371987
317GND              VIA        MD0118PA00X-014665Y-000492X0236Y0000R000S1557371987
317GND              VIA        MD0118PA00X-017126Y-009449X0236Y0000R000S1557371987
317GND              VIA        MD0118PA00X-048622Y-000394X0236Y0000R000S1557371987
317GND              VIA        MD0118PA00X-045768Y-008760X0236Y0000R000S1557371987
317GND              VIA        MD0118PA00X-048622Y+001378X0236Y0000R000S1557371987
317GND              VIA        MD0118PA00X-019882Y-012500X0236Y0000R000S1557371987
317GND              VIA        MD0118PA00X-034744Y-005512X0236Y0000R000S1557371987
317GND              VIA        MD0118PA00X-042028Y-005512X0236Y0000R000S1557371987
317GND              VIA        MD0118PA00X-029232Y+013976X0236Y0000R000S1557371987
317GND              VIA        MD0118PA00X-040846Y-016339X0236Y0000R000S1557371987
317GND              VIA        MD0118PA00X-032382Y-009350X0236Y0000R000S1557371987
317GND              VIA        MD0118PA00X-012500Y+019193X0236Y0000R000S1557371987
317GND              VIA        MD0118PA00X-039370Y-017126X0236Y0000R000S1557371987
317GND              VIA        MD0118PA00X-033071Y+005807X0236Y0000R000S1557371987
317GND              VIA        MD0118PA00X-048819Y+013386X0236Y0000R000S1557371987
317GND              VIA        MD0118PA00X-020669Y-013878X0236Y0000R000S1557371987
317GND              VIA        MD0118PA00X-044193Y+006791X0236Y0000R000S1557371987
317GND              VIA        MD0118PA00X-038484Y-009449X0236Y0000R000S1557371987
317GND              VIA        MD0118PA00X-035039Y+003051X0236Y0000R000S1557371987
317GND              VIA        MD0118PA00X-043012Y-007480X0236Y0000R000S1557371987
317GND              VIA        MD0118PA00X-038681Y-002756X0236Y0000R000S1557371987
317GND              VIA        MD0118PA00X-013976Y+005020X0236Y0000R000S1557371987
317GND              VIA        MD0118PA00X-035236Y+012795X0236Y0000R000S1557371987
317GND              VIA        MD0118PA00X-014862Y-012795X0236Y0000R000S1557371987
317GND              VIA        MD0118PA00X-038287Y+011220X0236Y0000R000S1557371987
317GND              VIA        MD0118PA00X-029921Y-011319X0236Y0000R000S1557371987
317GND              VIA        MD0118PA00X-012303Y-014665X0236Y0000R000S1557371987
317GND              VIA        MD0118PA00X-038287Y-012008X0236Y0000R000S1557371987
317GND              VIA        MD0118PA00X-026378Y+013287X0236Y0000R000S1557371987
317GND              VIA        MD0118PA00X-025492Y+013287X0236Y0000R000S1557371987
317GND              VIA        MD0118PA00X-021063Y-015846X0236Y0000R000S1557371987
317GND              VIA        MD0118PA00X-029626Y-015551X0236Y0000R000S1557371987
317GND              VIA        MD0118PA00X-037598Y-017126X0236Y0000R000S1557371987
317GND              VIA        MD0118PA00X-038091Y-014764X0236Y0000R000S1557371987
317GND              VIA        MD0118PA00X-032972Y-000394X0236Y0000R000S1557371987
317GND              VIA        MD0118PA00X-030118Y+016339X0236Y0000R000S1557371987
317GND              VIA        MD0118PA00X-031102Y+016339X0236Y0000R000S1557371987
317GND              VIA        MD0118PA00X-033366Y-016437X0236Y0000R000S1557371987
317GND              VIA        MD0118PA00X-029134Y+002461X0236Y0000R000S1557371987
317GND              VIA        MD0118PA00X-034449Y-017126X0236Y0000R000S1557371987
317GND              VIA        MD0118PA00X-048524Y-010827X0236Y0000R000S1557371987
317GND              VIA        MD0118PA00X-042323Y-017126X0236Y0000R000S1557371987
317GND              VIA        MD0118PA00X-035531Y-015551X0236Y0000R000S1557371987
317GND              VIA        MD0118PA00X-026772Y-016437X0236Y0000R000S1557371987
317GND              VIA        MD0118PA00X-036024Y+014862X0236Y0000R000S1557371987
317GND              VIA        MD0118PA00X-032087Y+012303X0236Y0000R000S1557371987
317GND              VIA        MD0118PA00X-042126Y-000492X0236Y0000R000S1557371987
317GND              VIA        MD0118PA00X-039370Y+011220X0236Y0000R000S1557371987
317GND              VIA        MD0118PA00X-017520Y-002657X0236Y0000R000S1557371987
317GND              VIA        MD0118PA00X-032087Y+016339X0236Y0000R000S1557371987
317GND              VIA        MD0118PA00X-012402Y+006496X0236Y0000R000S1557371987
317GND              VIA        MD0118PA00X-027165Y+013287X0236Y0000R000S1557371987
317GND              VIA        MD0118PA00X-034154Y+009055X0236Y0000R000S1557371987
317GND              VIA        MD0118PA00X-031102Y+010039X0236Y0000R000S1557371987
317GND              VIA        MD0118PA00X-025492Y-011713X0236Y0000R000S1557371987
317GND              VIA        MD0118PA00X-026969Y+018602X0236Y0000R000S1557371987
317GND              VIA        MD0118PA00X-016339Y+009547X0236Y0000R000S1557371987
317GND              VIA        MD0118PA00X-029232Y+012303X0236Y0000R000S1557371987
317GND              VIA        MD0118PA00X-032382Y-015551X0236Y0000R000S1557371987
317GND              VIA        MD0118PA00X-031890Y-011024X0236Y0000R000S1557371987
317GND              VIA        MD0118PA00X-023720Y-009843X0236Y0000R000S1557371987
317GND              VIA        MD0118PA00X-038484Y+003445X0236Y0000R000S1557371987
317GND              VIA        MD0118PA00X-042028Y-014469X0236Y0000R000S1557371987
317GND              VIA        MD0118PA00X-032382Y-016437X0236Y0000R000S1557371987
317GND              VIA        MD0118PA00X-027756Y-000492X0236Y0000R000S1557371987
317GND              VIA        MD0118PA00X-026476Y+010827X0236Y0000R000S1557371987
317GND              VIA        MD0118PA00X-040256Y+003248X0236Y0000R000S1557371987
317GND              VIA        MD0118PA00X-022047Y-008858X0236Y0000R000S1557371987
317GND              VIA        MD0118PA00X-041142Y-004134X0236Y0000R000S1557371987
317GND              VIA        MD0118PA00X-036614Y-001181X0236Y0000R000S1557371987
317GND              VIA        MD0118PA00X-014665Y-006201X0236Y0000R000S1557371987
317GND              VIA        MD0118PA00X-023917Y-008366X0236Y0000R000S1557371987
317GND              VIA        MD0118PA00X-032185Y+004724X0236Y0000R000S1557371987
317GND              VIA        MD0118PA00X-027657Y-010925X0236Y0000R000S1557371987
317GND              VIA        MD0118PA00X-045276Y+014764X0236Y0000R000S1557371987
317GND              VIA        MD0118PA00X-036417Y-002165X0236Y0000R000S1557371987
317GND              VIA        MD0118PA00X-039370Y-001673X0236Y0000R000S1557371987
317GND              VIA        MD0118PA00X-017618Y+010335X0236Y0000R000S1557371987
317GND              VIA        MD0118PA00X-043602Y-004134X0236Y0000R000S1557371987
317GND              VIA        MD0118PA00X-036909Y-009154X0236Y0000R000S1557371987
317GND              VIA        MD0118PA00X-030315Y-003740X0236Y0000R000S1557371987
317GND              VIA        MD0118PA00X-020276Y+015846X0236Y0000R000S1557371987
317GND              VIA        MD0118PA00X-032087Y+013976X0236Y0000R000S1557371987
317GND              VIA        MD0118PA00X-043406Y+014173X0236Y0000R000S1557371987
317GND              VIA        MD0118PA00X-025787Y+009055X0236Y0000R000S1557371987
317GND              VIA        MD0118PA00X-038287Y+015354X0236Y0000R000S1557371987
317GND              VIA        MD0118PA00X-039370Y+012697X0236Y0000R000S1557371987
317GND              VIA        MD0118PA00X-037106Y-014370X0236Y0000R000S1557371987
317GND              VIA        MD0118PA00X-025886Y+001673X0236Y0000R000S1557371987
317GND              VIA        MD0118PA00X-032972Y+002559X0236Y0000R000S1557371987
317GND              VIA        MD0118PA00X-031201Y-004823X0236Y0000R000S1557371987
317GND              VIA        MD0118PA00X-032185Y+005807X0236Y0000R000S1557371987
317GND              VIA        MD0118PA00X-012500Y+016240X0236Y0000R000S1557371987
317GND              VIA        MD0118PA00X-029134Y+017618X0236Y0000R000S1557371987
317GND              VIA        MD0118PA00X-024803Y-002067X0236Y0000R000S1557371987
317GND              VIA        MD0118PA00X-040256Y+010039X0236Y0000R000S1557371987
317GND              VIA        MD0118PA00X-016634Y-001083X0236Y0000R000S1557371987
317GND              VIA        MD0118PA00X-038780Y+010039X0236Y0000R000S1557371987
317GND              VIA        MD0118PA00X-048622Y-003642X0236Y0000R000S1557371987
317GND              VIA        MD0118PA00X-026280Y-001969X0236Y0000R000S1557371987
317GND              VIA        MD0118PA00X-029626Y-017126X0236Y0000R000S1557371987
317GND              VIA        MD0118PA00X-032185Y+002461X0236Y0000R000S1557371987
317GND              VIA        MD0118PA00X-016240Y-013976X0236Y0000R000S1557371987
317GND              VIA        MD0118PA00X-043996Y-005610X0236Y0000R000S1557371987
317GND              VIA        MD0118PA00X-040748Y+011220X0236Y0000R000S1557371987
317GND              VIA        MD0118PA00X-021063Y+000591X0236Y0000R000S1557371987
317GND              VIA        MD0118PA00X-015551Y-014961X0236Y0000R000S1557371987
317GND              VIA        MD0118PA00X-029724Y+003248X0236Y0000R000S1557371987
317GND              VIA        MD0118PA00X-019488Y-014862X0236Y0000R000S1557371987
317GND              VIA        MD0118PA00X-031004Y-015551X0236Y0000R000S1557371987
317GND              VIA        MD0118PA00X-017224Y+010335X0236Y0000R000S1557371987
317GND              VIA        MD0118PA00X-035827Y-004134X0236Y0000R000S1557371987
317GND              VIA        MD0118PA00X-045079Y+018996X0236Y0000R000S1557371987
317GND              VIA        MD0118PA00X-017815Y-003445X0236Y0000R000S1557371987
317GND              VIA        MD0118PA00X-044882Y-017126X0236Y0000R000S1557371987
317GND              VIA        MD0118PA00X-017618Y+009547X0236Y0000R000S1557371987
317GND              VIA        MD0118PA00X-020374Y+014075X0236Y0000R000S1557371987
317GND              VIA        MD0118PA00X-042224Y-013583X0236Y0000R000S1557371987
317GND              VIA        MD0118PA00X-046063Y+014469X0236Y0000R000S1557371987
317GND              VIA        MD0118PA00X-015453Y-004429X0236Y0000R000S1557371987
317GND              VIA        MD0118PA00X-032185Y+009744X0236Y0000R000S1557371987
317GND              VIA        MD0118PA00X-016142Y-008563X0236Y0000R000S1557371987
317GND              VIA        MD0118PA00X-048130Y+014173X0236Y0000R000S1557371987
317GND              VIA        MD0118PA00X-023917Y-009055X0236Y0000R000S1557371987
317GND              VIA        MD0118PA00X-039075Y-004528X0236Y0000R000S1557371987
317GND              VIA        MD0118PA00X-026083Y-005807X0236Y0000R000S1557371987
317GND              VIA        MD0118PA00X-028346Y+016043X0236Y0000R000S1557371987
317GND              VIA        MD0118PA00X-022638Y-002559X0236Y0000R000S1557371987
317GND              VIA        MD0118PA00X-018406Y+015157X0236Y0000R000S1557371987
317GND              VIA        MD0118PA00X-040453Y-001476X0236Y0000R000S1557371987
317GND              VIA        MD0118PA00X-037303Y+010039X0236Y0000R000S1557371987
317GND              VIA        MD0118PA00X-039370Y-016339X0236Y0000R000S1557371987
317GND              VIA        MD0118PA00X-037205Y+012697X0236Y0000R000S1557371987
317GND              VIA        MD0118PA00X-037598Y-016437X0236Y0000R000S1557371987
317GND              VIA        MD0118PA00X-040256Y-000492X0236Y0000R000S1557371987
317GND              VIA        MD0118PA00X-033366Y-017126X0236Y0000R000S1557371987
317GND              VIA        MD0118PA00X-032283Y-004035X0236Y0000R000S1557371987
317GND              VIA        MD0118PA00X-043996Y-001870X0236Y0000R000S1557371987
317GND              VIA        MD0118PA00X-020374Y+012697X0236Y0000R000S1557371987
317GND              VIA        MD0118PA00X-031004Y-016437X0236Y0000R000S1557371987
317GND              VIA        MD0118PA00X-035236Y+011516X0236Y0000R000S1557371987
317GND              VIA        MD0118PA00X-033169Y+007382X0236Y0000R000S1557371987
317GND              VIA        MD0118PA00X-025787Y+012500X0236Y0000R000S1557371987
317GND              VIA        MD0118PA00X-020374Y-004724X0236Y0000R000S1557371987
317GND              VIA        MD0118PA00X-013091Y+012205X0236Y0000R000S1557371987
317GND              VIA        MD0118PA00X-033465Y-010236X0236Y0000R000S1557371987
317GND              VIA        MD0118PA00X-029528Y-002953X0236Y0000R000S1557371987
317GND              VIA        MD0118PA00X-013091Y+011024X0236Y0000R000S1557371987
317GND              VIA        MD0118PA00X-023917Y-006791X0236Y0000R000S1557371987
317GND              VIA        MD0118PA00X-015650Y-012992X0236Y0000R000S1557371987
317GND              VIA        MD0118PA00X-045079Y+016732X0236Y0000R000S1557371987
317GND              VIA        MD0118PA00X-028150Y-017126X0236Y0000R000S1557371987
317GND              VIA        MD0118PA00X-012205Y+004724X0236Y0000R000S1557371987
317GND              VIA        MD0118PA00X-037303Y-006594X0236Y0000R000S1557371987
317GND              VIA        MD0118PA00X-031201Y+002165X0236Y0000R000S1557371987
317GND              VIA        MD0118PA00X-038287Y+014075X0236Y0000R000S1557371987
317GND              VIA        MD0118PA00X-036417Y-002657X0236Y0000R000S1557371987
317GND              VIA        MD0118PA00X-020669Y-012992X0236Y0000R000S1557371987
317GND              VIA        MD0118PA00X-046457Y+004921X0236Y0000R000S1557371987
317GND              VIA        MD0118PA00X-014567Y-008661X0236Y0000R000S1557371987
317GND              VIA        MD0118PA00X-017913Y-000492X0236Y0000R000S1557371987
317GND              VIA        MD0118PA00X-033169Y+015354X0236Y0000R000S1557371987
317GND              VIA        MD0118PA00X-014961Y+005020X0236Y0000R000S1557371987
317GND              VIA        MD0118PA00X-013878Y+012205X0236Y0000R000S1557371987
317GND              VIA        MD0118PA00X-033169Y+004035X0236Y0000R000S1557371987
317GND              VIA        MD0118PA00X-024902Y-015157X0236Y0000R000S1557371987
317GND              VIA        MD0118PA00X-037205Y+000000X0236Y0000R000S1557371987
317GND              VIA        MD0118PA00X-040256Y-002461X0236Y0000R000S1557371987
317GND              VIA        MD0118PA00X-017815Y+007283X0236Y0000R000S1557371987
317GND              VIA        MD0118PA00X-034547Y+006004X0236Y0000R000S1557371987
317GND              VIA        MD0118PA00X-013878Y+008268X0236Y0000R000S1557371987
317GND              VIA        MD0118PA00X-016634Y+005610X0236Y0000R000S1557371987
317GND              VIA        MD0118PA00X-043012Y-005610X0236Y0000R000S1557371987
317GND              VIA        MD0118PA00X-014469Y+014272X0236Y0000R000S1557371987
317GND              VIA        MD0118PA00X-031791Y-006496X0236Y0000R000S1557371987
317GND              VIA        MD0118PA00X-047539Y+015945X0236Y0000R000S1557371987
317GND              VIA        MD0118PA00X-043799Y-000492X0236Y0000R000S1557371987
317GND              VIA        MD0118PA00X-044193Y-013287X0236Y0000R000S1557371987
317GND              VIA        MD0118PA00X-019291Y+013878X0236Y0000R000S1557371987
317GND              VIA        MD0118PA00X-046457Y+001476X0236Y0000R000S1557371987
317GND              VIA        MD0118PA00X-032283Y-010236X0236Y0000R000S1557371987
317GND              VIA        MD0118PA00X-037106Y-007677X0236Y0000R000S1557371987
317GND              VIA        MD0118PA00X-036220Y+016339X0236Y0000R000S1557371987
317GND              VIA        MD0118PA00X-025787Y+019291X0236Y0000R000S1557371987
317GND              VIA        MD0118PA00X-020177Y+018602X0236Y0000R000S1557371987
317GND              VIA        MD0118PA00X-022638Y+018799X0236Y0000R000S1557371987
317GND              VIA        MD0118PA00X-027165Y+014370X0236Y0000R000S1557371987
317GND              VIA        MD0118PA00X-031201Y-011220X0236Y0000R000S1557371987
317GND              VIA        MD0118PA00X-014862Y-011909X0236Y0000R000S1557371987
317GND              VIA        MD0118PA00X-033957Y-005906X0236Y0000R000S1557371987
317GND              VIA        MD0118PA00X-013287Y+004528X0236Y0000R000S1557371987
317GND              VIA        MD0118PA00X-037992Y-008268X0236Y0000R000S1557371987
317GND              VIA        MD0118PA00X-030315Y-007283X0236Y0000R000S1557371987
317GND              VIA        MD0118PA00X-017323Y-011024X0236Y0000R000S1557371987
317GND              VIA        MD0118PA00X-027165Y+016732X0236Y0000R000S1557371987
317GND              VIA        MD0118PA00X-040945Y+004528X0236Y0000R000S1557371987
317GND              VIA        MD0118PA00X-017224Y+011614X0236Y0000R000S1557371987
317GND              VIA        MD0118PA00X-041437Y-010630X0236Y0000R000S1557371987
317GND              VIA        MD0118PA00X-027953Y-004921X0236Y0000R000S1557371987
317GND              VIA        MD0118PA00X-021161Y+009646X0236Y0000R000S1557371987
317GND              VIA        MD0118PA00X-036220Y+015354X0236Y0000R000S1557371987
317GND              VIA        MD0118PA00X-040748Y+012697X0236Y0000R000S1557371987
317GND              VIA        MD0118PA00X-023720Y+009154X0236Y0000R000S1557371987
317GND              VIA        MD0118PA00X-015453Y-001772X0236Y0000R000S1557371987
317GND              VIA        MD0118PA00X-046457Y-000295X0236Y0000R000S1557371987
317GND              VIA        MD0118PA00X-038287Y+012697X0236Y0000R000S1557371987
317GND              VIA        MD0118PA00X-025492Y-017126X0236Y0000R000S1557371987
317GND              VIA        MD0118PA00X-029134Y+008071X0236Y0000R000S1557371987
317GND              VIA        MD0118PA00X-044783Y-002854X0236Y0000R000S1557371987
317GND              VIA        MD0118PA00X-021850Y+007776X0236Y0000R000S1557371987
317GND              VIA        MD0118PA00X-012500Y+014862X0236Y0000R000S1557371987
317GND              VIA        MD0118PA00X-028839Y-007185X0236Y0000R000S1557371987
317GND              VIA        MD0118PA00X-036516Y-007185X0236Y0000R000S1557371987
317GND              VIA        MD0118PA00X-032776Y-011024X0236Y0000R000S1557371987
317GND              VIA        MD0118PA00X-038681Y-015945X0236Y0000R000S1557371987
317GND              VIA        MD0118PA00X-043209Y-002854X0236Y0000R000S1557371987
317GND              VIA        MD0118PA00X-014567Y+004232X0236Y0000R000S1557371987
317GND              VIA        MD0118PA00X-013780Y+010630X0236Y0000R000S1557371987
317GND              VIA        MD0118PA00X-044193Y+008563X0236Y0000R000S1557371987
317GND              VIA        MD0118PA00X-023031Y-003642X0236Y0000R000S1557371987
317GND              VIA        MD0118PA00X-026181Y+015551X0236Y0000R000S1557371987
317GND              VIA        MD0118PA00X-038484Y+002362X0236Y0000R000S1557371987
317GND              VIA        MD0118PA00X-033071Y+010630X0236Y0000R000S1557371987
317GND              VIA        MD0118PA00X-040354Y+008563X0236Y0000R000S1557371987
317GND              VIA        MD0118PA00X-042913Y+003051X0236Y0000R000S1557371987
317GND              VIA        MD0118PA00X-038878Y+004823X0236Y0000R000S1557371987
317GND              VIA        MD0118PA00X-038091Y-006890X0236Y0000R000S1557371987
317GND              VIA        MD0118PA00X-022638Y+006201X0236Y0000R000S1557371987
317GND              VIA        MD0118PA00X-024902Y-007480X0236Y0000R000S1557371987
317GND              VIA        MD0118PA00X-025197Y+002657X0236Y0000R000S1557371987
317GND              VIA        MD0118PA00X-026181Y+014370X0236Y0000R000S1557371987
317GND              VIA        MD0118PA00X-033169Y+003543X0236Y0000R000S1557371987
317GND              VIA        MD0118PA00X-031102Y+013976X0236Y0000R000S1557371987
317GND              VIA        MD0118PA00X-035531Y-017126X0236Y0000R000S1557371987
317GND              VIA        MD0118PA00X-040748Y+017520X0236Y0000R000S1557371987
317GND              VIA        MD0118PA00X-017028Y-013878X0236Y0000R000S1557371987
317GND              VIA        MD0118PA00X-027657Y-009744X0236Y0000R000S1557371987
317GND              VIA        MD0118PA00X-024705Y-012402X0236Y0000R000S1557371987
317GND              VIA        MD0118PA00X-048622Y+006004X0236Y0000R000S1557371987
317GND              VIA        MD0118PA00X-016634Y+007283X0236Y0000R000S1557371987
317GND              VIA        MD0118PA00X-018012Y-007579X0236Y0000R000S1557371987
317GND              VIA        MD0118PA00X-032776Y-012008X0236Y0000R000S1557371987
317GND              VIA        MD0118PA00X-044980Y-007480X0236Y0000R000S1557371987
317GND              VIA        MD0118PA00X-016437Y+004429X0236Y0000R000S1557371987
317GND              VIA        MD0118PA00X-025492Y-016437X0236Y0000R000S1557371987
317GND              VIA        MD0118PA00X-019488Y-013878X0236Y0000R000S1557371987
317GND              VIA        MD0118PA00X-039272Y-015453X0236Y0000R000S1557371987
317GND              VIA        MD0118PA00X-019488Y-017126X0236Y0000R000S1557371987
317GND              VIA        MD0118PA00X-035433Y-008563X0236Y0000R000S1557371987
317GND              VIA        MD0118PA00X-034055Y+011614X0236Y0000R000S1557371987
317GND              VIA        MD0118PA00X-024803Y-009449X0236Y0000R000S1557371987
317GND              VIA        MD0118PA00X-036614Y-012106X0236Y0000R000S1557371987
317GND              VIA        MD0118PA00X-029134Y-000886X0236Y0000R000S1557371987
317GND              VIA        MD0118PA00X-039764Y-010433X0236Y0000R000S1557371987
317GND              VIA        MD0118PA00X-029528Y+000197X0236Y0000R000S1557371987
317GND              VIA        MD0118PA00X-029429Y-009449X0236Y0000R000S1557371987
317GND              VIA        MD0118PA00X-026280Y-002953X0236Y0000R000S1557371987
317GND              VIA        MD0118PA00X-033071Y+006398X0236Y0000R000S1557371987
317GND              VIA        MD0118PA00X-039075Y-005413X0236Y0000R000S1557371987
317GND              VIA        MD0118PA00X-045472Y-006299X0236Y0000R000S1557371987
317GND              VIA        MD0118PA00X-031004Y-017126X0236Y0000R000S1557371987
317GND              VIA        MD0118PA00X-020669Y-014862X0236Y0000R000S1557371987
317GND              VIA        MD0118PA00X-033071Y+009350X0236Y0000R000S1557371987
317GND              VIA        MD0118PA00X-012205Y-010827X0236Y0000R000S1557371987
317GND              VIA        MD0118PA00X-029134Y-002953X0236Y0000R000S1557371987
317GND              VIA        MD0118PA00X-044094Y-007480X0236Y0000R000S1557371987
317GND              VIA        MD0118PA00X-043799Y+002362X0236Y0000R000S1557371987
317GND              VIA        MD0118PA00X-017815Y+008957X0236Y0000R000S1557371987
317GND              VIA        MD0118PA00X-020177Y+007874X0236Y0000R000S1557371987
317GND              VIA        MD0118PA00X-034646Y+004724X0236Y0000R000S1557371987
317GND              VIA        MD0118PA00X-016929Y-011614X0236Y0000R000S1557371987
317GND              VIA        MD0118PA00X-023720Y-002953X0236Y0000R000S1557371987
317GND              VIA        MD0118PA00X-048622Y+004823X0236Y0000R000S1557371987
317GND              VIA        MD0118PA00X-040748Y+016339X0236Y0000R000S1557371987
317GND              VIA        MD0118PA00X-031693Y-002362X0236Y0000R000S1557371987
317GND              VIA        MD0118PA00X-040846Y-017126X0236Y0000R000S1557371987
317GND              VIA        MD0118PA00X-016634Y-012106X0236Y0000R000S1557371987
317GND              VIA        MD0118PA00X-037303Y-012008X0236Y0000R000S1557371987
317GND              VIA        MD0118PA00X-018799Y+014567X0236Y0000R000S1557371987
317GND              VIA        MD0118PA00X-032382Y-017126X0236Y0000R000S1557371987
317GND              VIA        MD0118PA00X-018307Y+008563X0236Y0000R000S1557371987
317GND              VIA        MD0118PA00X-043406Y-014075X0236Y0000R000S1557371987
317GND              VIA        MD0118PA00X-031693Y-015157X0236Y0000R000S1557371987
317GND              VIA        MD0118PA00X-014961Y+006299X0236Y0000R000S1557371987
317GND              VIA        MD0118PA00X-026083Y+018307X0236Y0000R000S1557371987
317GND              VIA        MD0118PA00X-040846Y-011220X0236Y0000R000S1557371987
317GND              VIA        MD0118PA00X-036516Y-016437X0236Y0000R000S1557371987
317GND              VIA        MD0118PA00X-048524Y-006496X0236Y0000R000S1557371987
317GND              VIA        MD0118PA00X-017815Y+012303X0236Y0000R000S1557371987
317GND              VIA        MD0118PA00X-040748Y-008661X0236Y0000R000S1557371987
317GND              VIA        MD0118PA00X-039567Y+005512X0236Y0000R000S1557371987
317GND              VIA        MD0118PA00X-020177Y+006102X0236Y0000R000S1557371987
317GND              VIA        MD0118PA00X-041831Y-007382X0236Y0000R000S1557371987
317GND              VIA        MD0118PA00X-015256Y+012697X0236Y0000R000S1557371987
317GND              VIA        MD0118PA00X-039370Y+017520X0236Y0000R000S1557371987
317GND              VIA        MD0118PA00X-033465Y-008169X0236Y0000R000S1557371987
317GND              VIA        MD0118PA00X-024508Y-010531X0236Y0000R000S1557371987
317GND              VIA        MD0118PA00X-025492Y-015551X0236Y0000R000S1557371987
317GND              VIA        MD0118PA00X-026280Y-000689X0236Y0000R000S1557371987
317GND              VIA        MD0118PA00X-038976Y+006398X0236Y0000R000S1557371987
317GND              VIA        MD0118PA00X-026772Y-017126X0236Y0000R000S1557371987
317GND              VIA        MD0118PA00X-027165Y+007579X0236Y0000R000S1557371987
317GND              VIA        MD0118PA00X-032087Y+011024X0236Y0000R000S1557371987
317GND              VIA        MD0118PA00X-033858Y-007283X0236Y0000R000S1557371987
317GND              VIA        MD0118PA00X-034055Y+015354X0236Y0000R000S1557371987
317GND              VIA        MD0118PA00X-035433Y-007087X0236Y0000R000S1557371987
317GND              VIA        MD0118PA00X-029528Y+001181X0236Y0000R000S1557371987
317GND              VIA        MD0118PA00X-022343Y-015846X0236Y0000R000S1557371987
317GND              VIA        MD0118PA00X-028839Y-010827X0236Y0000R000S1557371987
317GND              VIA        MD0118PA00X-037205Y+011220X0236Y0000R000S1557371987
317GND              VIA        MD0118PA00X-035335Y-009449X0236Y0000R000S1557371987
317GND              VIA        MD0118PA00X-030118Y+012303X0236Y0000R000S1557371987
317GND              VIA        MD0118PA00X-017224Y+015256X0236Y0000R000S1557371987
317GND              VIA        MD0118PA00X-036024Y+012402X0236Y0000R000S1557371987
317GND              VIA        MD0118PA00X-023819Y+000886X0236Y0000R000S1557371987
317GND              VIA        MD0118PA00X-015453Y-003150X0236Y0000R000S1557371987
317GND              VIA        MD0118PA00X-015846Y+008169X0236Y0000R000S1557371987
317GND              VIA        MD0118PA00X-029823Y-005906X0236Y0000R000S1557371987
317GND              VIA        MD0118PA00X-041732Y+010039X0236Y0000R000S1557371987
317GND              VIA        MD0118PA00X-034449Y-015551X0236Y0000R000S1557371987
317GND              VIA        MD0118PA00X-018012Y-004724X0236Y0000R000S1557371987
317GND              VIA        MD0118PA00X-042323Y-016339X0236Y0000R000S1557371987
317GND              VIA        MD0118PA00X-026378Y-009744X0236Y0000R000S1557371987
317GND              VIA        MD0118PA00X-030807Y+003346X0236Y0000R000S1557371987
317GND              VIA        MD0118PA00X-046457Y+008563X0236Y0000R000S1557371987
317GND              VIA        MD0118PA00X-018996Y+008071X0236Y0000R000S1557371987
317GND              VIA        MD0118PA00X-021555Y-012795X0236Y0000R000S1557371987
317GND              VIA        MD0118PA00X-031496Y-000591X0236Y0000R000S1557371987
317GND              VIA        MD0118PA00X-040650Y-003543X0236Y0000R000S1557371987
317GND              VIA        MD0118PA00X-035039Y+017618X0236Y0000R000S1557371987
317GND              VIA        MD0118PA00X-039567Y+004035X0236Y0000R000S1557371987
317GND              VIA        MD0118PA00X-048130Y+011614X0236Y0000R000S1557371987
317GND              VIA        MD0118PA00X-031102Y+015354X0236Y0000R000S1557371987
317GND              VIA        MD0118PA00X-012205Y-012205X0236Y0000R000S1557371987
317GND              VIA        MD0118PA00X-027657Y-010335X0236Y0000R000S1557371987
317GND              VIA        MD0118PA00X-038878Y+001575X0236Y0000R000S1557371987
317GND              VIA        MD0118PA00X-039370Y+015354X0236Y0000R000S1557371987
317GND              VIA        MD0118PA00X-022835Y+002953X0236Y0000R000S1557371987
317GND              VIA        MD0118PA00X-020374Y+005118X0236Y0000R000S1557371987
317GND              VIA        MD0118PA00X-038091Y+000787X0236Y0000R000S1557371987
317GND              VIA        MD0118PA00X-037992Y-002657X0236Y0000R000S1557371987
317GND              VIA        MD0118PA00X-030118Y+006693X0236Y0000R000S1557371987
317GND              VIA        MD0118PA00X-022638Y+006988X0236Y0000R000S1557371987
317GND              VIA        MD0118PA00X-014961Y+005610X0236Y0000R000S1557371987
317GND              VIA        MD0118PA00X-029528Y-001969X0236Y0000R000S1557371987
317GND              VIA        MD0118PA00X-016142Y-015846X0236Y0000R000S1557371987
317GND              VIA        MD0118PA00X-044488Y+014272X0236Y0000R000S1557371987
317GND              VIA        MD0118PA00X-031594Y-003346X0236Y0000R000S1557371987
317GND              VIA        MD0118PA00X-027165Y+012500X0236Y0000R000S1557371987
317GND              VIA        MD0118PA00X-017126Y-006693X0236Y0000R000S1557371987
317GND              VIA        MD0118PA00X-036024Y+010925X0236Y0000R000S1557371987
317GND              VIA        MD0118PA00X-034843Y+004134X0236Y0000R000S1557371987
317GND              VIA        MD0118PA00X-023524Y-004134X0236Y0000R000S1557371987
317GND              VIA        MD0118PA00X-026181Y+016732X0236Y0000R000S1557371987
317GND              VIA        MD0118PA00X-046457Y+006791X0236Y0000R000S1557371987
317GND              VIA        MD0118PA00X-020079Y-000689X0236Y0000R000S1557371987
317GND              VIA        MD0118PA00X-016929Y+018996X0236Y0000R000S1557371987
317GND              VIA        MD0118PA00X-037598Y-001476X0236Y0000R000S1557371987
317GND              VIA        MD0118PA00X-034646Y-006496X0236Y0000R000S1557371987
317GND              VIA        MD0118PA00X-037303Y+001083X0236Y0000R000S1557371987
317GND              VIA        MD0118PA00X-032185Y+017618X0236Y0000R000S1557371987
317GND              VIA        MD0118PA00X-016732Y+003248X0236Y0000R000S1557371987
317GND              VIA        MD0118PA00X-048622Y+003248X0236Y0000R000S1557371987
317GND              VIA        MD0118PA00X-022047Y-013583X0236Y0000R000S1557371987
317GND              VIA        MD0118PA00X-023819Y+002067X0236Y0000R000S1557371987
317GND              VIA        MD0118PA00X-026280Y+002067X0236Y0000R000S1557371987
317GND              VIA        MD0118PA00X-024902Y+010827X0236Y0000R000S1557371987
317GND              VIA        MD0118PA00X-031102Y+004724X0236Y0000R000S1557371987
317GND              VIA        MD0118PA00X-034055Y+010335X0236Y0000R000S1557371987
317GND              VIA        MD0118PA00X-019488Y-012992X0236Y0000R000S1557371987
317GND              VIA        MD0118PA00X-044685Y-003642X0236Y0000R000S1557371987
317GND              VIA        MD0118PA00X-046358Y-001969X0236Y0000R000S1557371987
317GND              VIA        MD0118PA00X-032087Y-012500X0236Y0000R000S1557371987
317GND              VIA        MD0118PA00X-018996Y+018504X0236Y0000R000S1557371987
317GND              VIA        MD0118PA00X-041634Y-003937X0236Y0000R000S1557371987
317GND              VIA        MD0118PA00X-024311Y-017126X0236Y0000R000S1557371987
317GND              VIA        MD0118PA00X-045669Y-015453X0236Y0000R000S1557371987
317GND              VIA        MD0118PA00X-025591Y-008957X0236Y0000R000S1557371987
317GND              VIA        MD0118PA00X-026083Y-014075X0236Y0000R000S1557371987
317GND              VIA        MD0118PA00X-017028Y+014764X0236Y0000R000S1557371987
317GND              VIA        MD0118PA00X-036122Y-010433X0236Y0000R000S1557371987
317GND              VIA        MD0118PA00X-027362Y-005512X0236Y0000R000S1557371987
317GND              VIA        MD0118PA00X-036516Y-017126X0236Y0000R000S1557371987
317GND              VIA        MD0118PA00X-014370Y+012795X0236Y0000R000S1557371987
317GND              VIA        MD0118PA00X-021260Y+017224X0236Y0000R000S1557371987
317GND              VIA        MD0118PA00X-030906Y+002559X0236Y0000R000S1557371987
317GND              VIA        MD0118PA00X-016929Y+009547X0236Y0000R000S1557371987
317GND              VIA        MD0118PA00X-043209Y+009843X0236Y0000R000S1557371987
317GND              VIA        MD0118PA00X-031299Y-010039X0236Y0000R000S1557371987
317GND              VIA        MD0118PA00X-013681Y+015846X0236Y0000R000S1557371987
317GND              VIA        MD0118PA00X-014075Y+008760X0236Y0000R000S1557371987
317GND              VIA        MD0118PA00X-036122Y+005709X0236Y0000R000S1557371987
317GND              VIA        MD0118PA00X-017028Y-014862X0236Y0000R000S1557371987
317GND              VIA        MD0118PA00X-045571Y-003642X0236Y0000R000S1557371987
317GND              VIA        MD0118PA00X-031890Y-013091X0236Y0000R000S1557371987
317GND              VIA        MD0118PA00X-041831Y+011516X0236Y0000R000S1557371987
317GND              VIA        MD0118PA00X-030906Y-006693X0236Y0000R000S1557371987
317GND              VIA        MD0118PA00X-038189Y-010433X0236Y0000R000S1557371987
317GND              VIA        MD0118PA00X-037402Y+002264X0236Y0000R000S1557371987
317GND              VIA        MD0118PA00X-028051Y+005709X0236Y0000R000S1557371987
317GND              VIA        MD0118PA00X-019390Y+017224X0236Y0000R000S1557371987
317GND              VIA        MD0118PA00X-029134Y+000197X0236Y0000R000S1557371987
317GND              VIA        MD0118PA00X-024213Y-004823X0236Y0000R000S1557371987
317GND              VIA        MD0118PA00X-041535Y-012008X0236Y0000R000S1557371987
317GND              VIA        MD0118PA00X-044685Y-015453X0236Y0000R000S1557371987
317GND              VIA        MD0118PA00X-024213Y+000591X0236Y0000R000S1557371987
317GND              VIA        MD0118PA00X-013386Y+012697X0236Y0000R000S1557371987
317GND              VIA        MD0118PA00X-016142Y+011614X0236Y0000R000S1557371987
317GND              VIA        MD0118PA00X-012500Y-017126X0236Y0000R000S1557371987
317GND              VIA        MD0118PA00X-031102Y+003937X0236Y0000R000S1557371987
317GND              VIA        MD0118PA00X-027756Y+001378X0236Y0000R000S1557371987
317GND              VIA        MD0118PA00X-042224Y+008563X0236Y0000R000S1557371987
317GND              VIA        MD0118PA00X-035531Y-016437X0236Y0000R000S1557371987
317GND              VIA        MD0118PA00X-022736Y-005709X0236Y0000R000S1557371987
317GND              VIA        MD0118PA00X-014764Y-014567X0236Y0000R000S1557371987
317GND              VIA        MD0118PA00X-046949Y-003642X0236Y0000R000S1557371987
317GND              VIA        MD0118PA00X-018799Y-004429X0236Y0000R000S1557371987
317GND              VIA        MD0118PA00X-025886Y+004724X0236Y0000R000S1557371987
317GND              VIA        MD0118PA00X-048228Y-005512X0236Y0000R000S1557371987
317GND              VIA        MD0118PA00X-028248Y+012500X0236Y0000R000S1557371987
317GND              VIA        MD0118PA00X-034350Y-010433X0236Y0000R000S1557371987
317GND              VIA        MD0118PA00X-043012Y-012205X0236Y0000R000S1557371987
317GND              VIA        MD0118PA00X-042224Y-006594X0236Y0000R000S1557371987
317GND              VIA        MD0118PA00X-021850Y+006398X0236Y0000R000S1557371987
317GND              VIA        MD0118PA00X-020374Y-008760X0236Y0000R000S1557371987
317GND              VIA        MD0118PA00X-028839Y-004823X0236Y0000R000S1557371987
317GND              VIA        MD0118PA00X-042224Y+006791X0236Y0000R000S1557371987
317GND              VIA        MD0118PA00X-012205Y-013091X0236Y0000R000S1557371987
317GND              VIA        MD0118PA00X-025492Y-010827X0236Y0000R000S1557371987
317GND              VIA        MD0118PA00X-016732Y+012402X0236Y0000R000S1557371987
317GND              VIA        MD0118PA00X-042913Y-006594X0236Y0000R000S1557371987
317GND              VIA        MD0118PA00X-029429Y-006890X0236Y0000R000S1557371987
317GND              VIA        MD0118PA00X-033563Y-011811X0236Y0000R000S1557371987
317GND              VIA        MD0118PA00X-013189Y+010138X0236Y0000R000S1557371987
317GND              VIA        MD0118PA00X-032382Y-008661X0236Y0000R000S1557371987
317GND              VIA        MD0118PA00X-025886Y+003445X0236Y0000R000S1557371987
317GND              VIA        MD0118PA00X-029232Y+011024X0236Y0000R000S1557371987
317GND              VIA        MD0118PA00X-014665Y-003150X0236Y0000R000S1557371987
317GND              VIA        MD0118PA00X-024311Y-003642X0236Y0000R000S1557371987
317GND              VIA        MD0118PA00X-028642Y-003543X0236Y0000R000S1557371987
317GND              VIA        MD0118PA00X-032776Y-014075X0236Y0000R000S1557371987
317GND              VIA        MD0118PA00X-018799Y-007185X0236Y0000R000S1557371987
317GND              VIA        MD0118PA00X-029232Y+016043X0236Y0000R000S1557371987
317GND              VIA        MD0118PA00X-030118Y+010039X0236Y0000R000S1557371987
317GND              VIA        MD0118PA00X-034055Y+013976X0236Y0000R000S1557371987
317GND              VIA        MD0118PA00X-024705Y-003150X0236Y0000R000S1557371987
317GND              VIA        MD0118PA00X-035335Y-002362X0236Y0000R000S1557371987
317GND              VIA        MD0118PA00X-020472Y+010925X0236Y0000R000S1557371987
317GND              VIA        MD0118PA00X-036614Y+000000X0236Y0000R000S1557371987
317GND              VIA        MD0118PA00X-016142Y-007480X0236Y0000R000S1557371987
317GND              VIA        MD0118PA00X-018996Y+016535X0236Y0000R000S1557371987
317GND              VIA        MD0118PA00X-024508Y+003937X0236Y0000R000S1557371987
317GND              VIA        MD0118PA00X-034449Y-016437X0236Y0000R000S1557371987
317GND              VIA        MD0118PA00X-018307Y-014862X0236Y0000R000S1557371987
317GND              VIA        MD0118PA00X-027756Y-011417X0236Y0000R000S1557371987
317GND              VIA        MD0118PA00X-048819Y+012402X0236Y0000R000S1557371987
317GND              VIA        MD0118PA00X-037205Y+014075X0236Y0000R000S1557371987
317GND              VIA        MD0118PA00X-036319Y+006693X0236Y0000R000S1557371987
317GND              VIA        MD0118PA00X-046063Y+015354X0236Y0000R000S1557371987
317GND              VIA        MD0118PA00X-028150Y-013583X0236Y0000R000S1557371987
317GND              VIA        MD0118PA00X-018898Y+003543X0236Y0000R000S1557371987
317GND              VIA        MD0118PA00X-037205Y+017520X0236Y0000R000S1557371987
317GND              VIA        MD0118PA00X-027756Y+019193X0236Y0000R000S1557371987
317GND              VIA        MD0118PA00X-025098Y+001575X0236Y0000R000S1557371987
317GND              VIA        MD0118PA00X-022047Y-007776X0236Y0000R000S1557371987
317GND              VIA        MD0118PA00X-035827Y-006398X0236Y0000R000S1557371987
317GND              VIA        MD0118PA00X-015748Y+006102X0236Y0000R000S1557371987
317GND              VIA        MD0118PA00X-039469Y-005906X0236Y0000R000S1557371987
317GND              VIA        MD0118PA00X-038386Y-014075X0236Y0000R000S1557371987
317GND              VIA        MD0118PA00X-025591Y-001378X0236Y0000R000S1557371987
317GND              VIA        MD0118PA00X-045079Y+010630X0236Y0000R000S1557371987
317GND              VIA        MD0118PA00X-030118Y+015354X0236Y0000R000S1557371987
317GND              VIA        MD0118PA00X-020374Y+012106X0236Y0000R000S1557371987
317GND              VIA        MD0118PA00X-020079Y-002264X0236Y0000R000S1557371987
317GND              VIA        MD0118PA00X-014469Y+001378X0236Y0000R000S1557371987
317GND              VIA        MD0118PA00X-020079Y-016339X0236Y0000R000S1557371987
317GND              VIA        MD0118PA00X-034252Y+007874X0236Y0000R000S1557371987
317GND              VIA        MD0118PA00X-022638Y+008268X0236Y0000R000S1557371987
317GND              VIA        MD0118PA00X-026083Y-015157X0236Y0000R000S1557371987
317GND              VIA        MD0118PA00X-028248Y-008465X0236Y0000R000S1557371987
317GND              VIA        MD0118PA00X-013878Y+011614X0236Y0000R000S1557371987
317GND              VIA        MD0118PA00X-031201Y-000098X0236Y0000R000S1557371987
317GND              VIA        MD0118PA00X-032972Y+000098X0236Y0000R000S1557371987
317GND              VIA        MD0118PA00X-031890Y-014075X0236Y0000R000S1557371987
317GND              VIA        MD0118PA00X-014665Y-004429X0236Y0000R000S1557371987
317GND              VIA        MD0118PA00X-048130Y+015256X0236Y0000R000S1557371987
317GND              VIA        MD0118PA00X-026181Y+017618X0236Y0000R000S1557371987
317GND              VIA        MD0118PA00X-048524Y-012697X0236Y0000R000S1557371987
317GND              VIA        MD0118PA00X-040551Y+002067X0236Y0000R000S1557371987
317GND              VIA        MD0118PA00X-048622Y+008465X0236Y0000R000S1557371987
317GND              VIA        MD0118PA00X-046161Y+012402X0236Y0000R000S1557371987
317GND              VIA        MD0118PA00X-016634Y-001772X0236Y0000R000S1557371987
317GND              VIA        MD0118PA00X-032776Y-015157X0236Y0000R000S1557371987
317GND              VIA        MD0118PA00X-032185Y+007382X0236Y0000R000S1557371987
317GND              VIA        MD0118PA00X-033661Y-011024X0236Y0000R000S1557371987
317GND              VIA        MD0118PA00X-030413Y-012303X0236Y0000R000S1557371987
317GND              VIA        MD0118PA00X-020177Y+007087X0236Y0000R000S1557371987
317GND              VIA        MD0118PA00X-015551Y-016634X0236Y0000R000S1557371987
317GND              VIA        MD0118PA00X-030512Y-010138X0236Y0000R000S1557371987
317GND              VIA        MD0118PA00X-031102Y+007382X0236Y0000R000S1557371987
317GND              VIA        MD0118PA00X-042028Y-001870X0236Y0000R000S1557371987
317GND              VIA        MD0118PA00X-016339Y+014075X0236Y0000R000S1557371987
317GND              VIA        MD0118PA00X-015453Y+013878X0236Y0000R000S1557371987
317GND              VIA        MD0118PA00X-020374Y+013287X0236Y0000R000S1557371987
317GND              VIA        MD0118PA00X-013780Y+009449X0236Y0000R000S1557371987
317GND              VIA        MD0118PA00X-019783Y+014665X0236Y0000R000S1557371987
317GND              VIA        MD0118PA00X-032087Y+003740X0236Y0000R000S1557371987
317GND              VIA        MD0118PA00X-044488Y+009843X0236Y0000R000S1557371987
317GND              VIA        MD0118PA00X-046358Y+010925X0236Y0000R000S1557371987
317GND              VIA        MD0118PA00X-045571Y-004724X0236Y0000R000S1557371987
317GND              VIA        MD0118PA00X-014862Y+000689X0236Y0000R000S1557371987
317GND              VIA        MD0118PA00X-029134Y-001969X0236Y0000R000S1557371987
317GND              VIA        MD0118PA00X-033661Y-013878X0236Y0000R000S1557371987
317GND              VIA        MD0118PA00X-018406Y+008071X0236Y0000R000S1557371987
317GND              VIA        MD0118PA00X-027165Y+015551X0236Y0000R000S1557371987
317GND              VIA        MD0118PA00X-029528Y-000886X0236Y0000R000S1557371987
317GND              VIA        MD0118PA00X-034252Y-011516X0236Y0000R000S1557371987
317GND              VIA        MD0118PA00X-038287Y+016339X0236Y0000R000S1557371987
317GND              VIA        MD0118PA00X-043209Y-003642X0236Y0000R000S1557371987
317GND              VIA        MD0118PA00X-023031Y-000492X0236Y0000R000S1557371987
317GND              VIA        MD0118PA00X-016732Y-009843X0236Y0000R000S1557371987
317GND              VIA        MD0118PA00X-032087Y+015354X0236Y0000R000S1557371987
317GND              VIA        MD0118PA00X-036220Y+017520X0236Y0000R000S1557371987
317GND              VIA        MD0118PA00X-013189Y-008858X0236Y0000R000S1557371987
317GND              VIA        MD0118PA00X-038386Y-001969X0236Y0000R000S1557371987
317GND              VIA        MD0118PA00X-048720Y+015945X0236Y0000R000S1557371987
317GND              VIA        MD0118PA00X-012303Y-009055X0236Y0000R000S1557371987
317GND              VIA        MD0118PA00X-018307Y-017126X0236Y0000R000S1557371987
317GND              VIA        MD0118PA00X-045571Y-002854X0236Y0000R000S1557371987
317GND              VIA        MD0118PA00X-043012Y+010925X0236Y0000R000S1557371987
317GND              VIA        MD0118PA00X-018307Y-012992X0236Y0000R000S1557371987
317GND              VIA        MD0118PA00X-028445Y-006791X0236Y0000R000S1557371987
317GND              VIA        MD0118PA00X-025886Y-005020X0236Y0000R000S1557371987
317GND              VIA        MD0118PA00X-027264Y-009154X0236Y0000R000S1557371987
317GND              VIA        MD0118PA00X-017224Y+003642X0236Y0000R000S1557371987
317GND              VIA        MD0118PA00X-021654Y-014862X0236Y0000R000S1557371987
317GND              VIA        MD0118PA00X-013484Y-014567X0236Y0000R000S1557371987
317GND              VIA        MD0118PA00X-024902Y-008169X0236Y0000R000S1557371987
317GND              VIA        MD0118PA00X-041929Y+015945X0236Y0000R000S1557371987
317GND              VIA        MD0118PA00X-036024Y+003051X0236Y0000R000S1557371987
317GND              VIA        MD0118PA00X-037205Y+015354X0236Y0000R000S1557371987
317GND              VIA        MD0118PA00X-044488Y+016043X0236Y0000R000S1557371987
317GND              VIA        MD0118PA00X-041437Y+019193X0236Y0000R000S1557371987
317GND              VIA        MD0118PA00X-045768Y-010827X0236Y0000R000S1557371987
317GND              VIA        MD0118PA00X-041732Y-002953X0236Y0000R000S1557371987
317GND              VIA        MD0118PA00X-014075Y+003839X0236Y0000R000S1557371987
317GND              VIA        MD0118PA00X-015354Y+000197X0236Y0000R000S1557371987
317GND              VIA        MD0118PA00X-035138Y-010630X0236Y0000R000S1557371987
317GND              VIA        MD0118PA00X-012303Y+014075X0236Y0000R000S1557371987
317GND              VIA        MD0118PA00X-024606Y+005709X0236Y0000R000S1557371987
317GND              VIA        MD0118PA00X-036713Y-000689X0236Y0000R000S1557371987
317GND              VIA        MD0118PA00X-012205Y-009843X0236Y0000R000S1557371987
317GND              VIA        MD0118PA00X-017126Y+013287X0236Y0000R000S1557371987
317GND              VIA        MD0118PA00X-014665Y+001870X0236Y0000R000S1557371987
317GND              VIA        MD0118PA00X-048130Y+016634X0236Y0000R000S1557371987
317GND              VIA        MD0118PA00X-038583Y-007185X0236Y0000R000S1557371987
317GND              VIA        MD0118PA00X-029331Y-004035X0236Y0000R000S1557371987
317GND              VIA        MD0118PA00X-030906Y-013091X0236Y0000R000S1557371987
317GND              VIA        MD0118PA00X-027165Y+017618X0236Y0000R000S1557371987
317GND              VIA        MD0118PA00X-039075Y-006594X0236Y0000R000S1557371987
317GND              VIA        MD0118PA00X-045571Y-005512X0236Y0000R000S1557371987
317GND              VIA        MD0118PA00X-014862Y-004823X0236Y0000R000S1557371987
317GND              VIA        MD0118PA00X-014665Y-007776X0236Y0000R000S1557371987
317GND              VIA        MD0118PA00X-015059Y-015846X0236Y0000R000S1557371987
317GND              VIA        MD0118PA00X-028346Y+008071X0236Y0000R000S1557371987
317GND              VIA        MD0118PA00X-030709Y+002165X0236Y0000R000S1557371987
317GND              VIA        MD0118PA00X-022736Y-014665X0236Y0000R000S1557371987
317GND              VIA        MD0118PA00X-025098Y+004724X0236Y0000R000S1557371987
317GND              VIA        MD0118PA00X-040748Y+015354X0236Y0000R000S1557371987
317GND              VIA        MD0118PA00X-022736Y-006791X0236Y0000R000S1557371987
317GND              VIA        MD0118PA00X-048524Y-008858X0236Y0000R000S1557371987
317GND              VIA        MD0118PA00X-036516Y-007874X0236Y0000R000S1557371987
317GND              VIA        MD0118PA00X-018898Y-003543X0236Y0000R000S1557371987
317GND              VIA        MD0118PA00X-030020Y-004823X0236Y0000R000S1557371987
317GND              VIA        MD0118PA00X-045768Y-016732X0236Y0000R000S1557371987
317GND              VIA        MD0118PA00X-038976Y+007776X0236Y0000R000S1557371987
317GND              VIA        MD0118PA00X-032185Y+008071X0236Y0000R000S1557371987
317GND              VIA        MD0118PA00X-038386Y-013091X0236Y0000R000S1557371987
317GND              VIA        MD0118PA00X-022736Y-008169X0236Y0000R000S1557371987
317GND              VIA        MD0118PA00X-034744Y-003740X0236Y0000R000S1557371987
317GND              VIA        MD0118PA00X-014075Y+011122X0236Y0000R000S1557371987
317GND              VIA        MD0118PA00X-034154Y+013091X0236Y0000R000S1557371987
317GND              VIA        MD0118PA00X-018307Y+013484X0236Y0000R000S1557371987
317GND              VIA        MD0118PA00X-030512Y-009252X0236Y0000R000S1557371987
317GND              VIA        MD0118PA00X-037992Y-007283X0236Y0000R000S1557371987
317GND              VIA        MD0118PA00X-025886Y+004232X0236Y0000R000S1557371987
317GND              VIA        MD0118PA00X-022736Y+004724X0236Y0000R000S1557371987
317GND              VIA        MD0118PA00X-017126Y+016732X0236Y0000R000S1557371987
317GND              VIA        MD0118PA00X-030906Y-002362X0236Y0000R000S1557371987
317GND              VIA        MD0118PA00X-031102Y+011024X0236Y0000R000S1557371987
317GND              VIA        MD0118PA00X-046555Y-007579X0236Y0000R000S1557371987
317GND              VIA        MD0118PA00X-025689Y-013583X0236Y0000R000S1557371987
317GND              VIA        MD0118PA00X-027953Y-003839X0236Y0000R000S1557371987
317GND              VIA        MD0118PA00X-036319Y-009449X0236Y0000R000S1557371987
317GND              VIA        MD0118PA00X-025000Y-004232X0236Y0000R000S1557371987
317GND              VIA        MD0118PA00X-038681Y+000197X0236Y0000R000S1557371987
317GND              VIA        MD0118PA00X-028839Y-015157X0236Y0000R000S1557371987
317GND              VIA        MD0118PA00X-015453Y+003642X0236Y0000R000S1557371987
317GND              VIA        MD0118PA00X-029134Y+001181X0236Y0000R000S1557371987
317GND              VIA        MD0118PA00X-048622Y+006791X0236Y0000R000S1557371987
317GND              VIA        MD0118PA00X-039370Y+014075X0236Y0000R000S1557371987
317GND              VIA        MD0118PA00X-045571Y-007480X0236Y0000R000S1557371987
317GND              VIA        MD0118PA00X-027165Y+006791X0236Y0000R000S1557371987
317GND              VIA        MD0118PA00X-028839Y-008661X0236Y0000R000S1557371987
317GND              VIA        MD0118PA00X-036417Y-006594X0236Y0000R000S1557371987
317GND              VIA        MD0118PA00X-029232Y+010039X0236Y0000R000S1557371987
317GND              VIA        MD0118PA00X-045768Y+016043X0236Y0000R000S1557371987
317GND              VIA        MD0118PA00X-012598Y+009449X0236Y0000R000S1557371987
317GND              VIA        MD0118PA00X-037205Y+016339X0236Y0000R000S1557371987
317GND              VIA        MD0118PA00X-028150Y-015551X0236Y0000R000S1557371987
317GND              VIA        MD0118PA00X-014862Y-011024X0236Y0000R000S1557371987
317GND              VIA        MD0118PA00X-030709Y-000098X0236Y0000R000S1557371987
317GND              VIA        MD0118PA00X-016634Y+006201X0236Y0000R000S1557371987
317GND              VIA        MD0118PA00X-019882Y+005118X0236Y0000R000S1557371987
317GND              VIA        MD0118PA00X-018504Y+017323X0236Y0000R000S1557371987
317GND              VIA        MD0118PA00X-035827Y-003248X0236Y0000R000S1557371987
317GND              VIA        MD0118PA00X-041339Y-015059X0236Y0000R000S1557371987
317GND              VIA        MD0118PA00X-032776Y-013091X0236Y0000R000S1557371987
317GND              VIA        MD0118PA00X-039370Y+016339X0236Y0000R000S1557371987
317GND              VIA        MD0118PA00X-031102Y+012303X0236Y0000R000S1557371987
317VBUS             VIA        MD0118PA00X-015455Y+010923X0236Y0000R000S1557371987
317VBUS             VIA        MD0118PA00X-014549Y+009234X0236Y0000R000S1557371987
317VSYS             VIA        MD0118PA00X-019587Y+007972X0236Y0000R000S1557371987
317VSYS             VIA        MD0118PA00X-026772Y-006201X0236Y0000R000S1557371987
317VSYS             VIA        MD0118PA00X-022047Y-006201X0236Y0000R000S1557371987
317VSYS             VIA        MD0118PA00X-018996Y+005610X0236Y0000R000S1557371987
317VSYS             VIA        MD0118PA00X-019564Y+011827X0236Y0000R000S1557371987
317VSYS             VIA        MD0118PA00X-018504Y-006162X0236Y0000R000S1557371987
317+3V3             VIA        MD0118PA00X-032972Y-001673X0236Y0000R000S1557371987
317+3V3             VIA        MD0118PA00X-035335Y-001673X0236Y0000R000S1557371987
317+3V3             VIA        MD0118PA00X-018740Y-009154X0236Y0000R000S1557371987
317+3V3             VIA        MD0118PA00X-036713Y-011614X0236Y0000R000S1557371987
317+3V3             VIA        MD0118PA00X-034843Y-011516X0236Y0000R000S1557371987
317+3V3             VIA        MD0118PA00X-027756Y+007579X0236Y0000R000S1557371987
317+3V3             VIA        MD0118PA00X-019882Y+003445X0236Y0000R000S1557371987
317+3V3             VIA        MD0118PA00X-043996Y-013878X0236Y0000R000S1557371987
317+3V3             VIA        MD0118PA00X-022244Y+012155X0236Y0000R000S1557371987
317+3V3             VIA        MD0118PA00X-017126Y-009843X0236Y0000R000S1557371987
317+3V3             VIA        MD0118PA00X-019488Y-007185X0236Y0000R000S1557371987
317+3V3             VIA        MD0118PA00X-017520Y+004035X0236Y0000R000S1557371987
317+3V3             VIA        MD0118PA00X-014370Y+007185X0236Y0000R000S1557371987
317+3V3             VIA        MD0118PA00X-018110Y-009252X0236Y0000R000S1557371987
317+3V3             VIA        MD0118PA00X-021923Y+013557X0236Y0000R000S1557371987
317+3V3             VIA        MD0118PA00X-027756Y+011614X0236Y0000R000S1557371987
317+3V3             VIA        MD0118PA00X-034744Y-009941X0236Y0000R000S1557371987
317/WR-EN           VIA        MD0118PA00X-031890Y+002953X0236Y0000R000S1557371987
317/WR-EN           VIA        MD0118PA00X-023228Y+009941X0236Y0000R000S1557371987
317/WR-EN           VIA        MD0118PA00X-021654Y+013780X0236Y0000R000S1557371987
317/WR-EN           VIA        MD0118PA00X-021654Y+012008X0236Y0000R000S1557371987
317/S3-EN           VIA        MD0118PA00X-016437Y+016929X0236Y0000R000S1557371987
317/S3-EN           VIA        MD0118PA00X-020571Y+014665X0236Y0000R000S1557371987
317/S3-EN           VIA        MD0118PA00X-015846Y+001969X0236Y0000R000S1557371987
317/S3-EN           VIA        MD0118PA00X-017421Y+015906X0236Y0000R000S1557371987
317/S3-IO0          VIA        MD0118PA00X-021260Y+015846X0236Y0000R000S1557371987
317/S3-IO0          VIA        MD0118PA00X-021752Y+008465X0236Y0000R000S1557371987
317/S3-IO0          VIA        MD0118PA00X-021260Y-004823X0236Y0000R000S1557371987
317/S3-IO0          VIA        MD0118PA00X-021161Y+011220X0236Y0000R000S1557371987
317/WR-IO0          VIA        MD0118PA00X-022441Y+009547X0236Y0000R000S1557371987
317/WR-IO0          VIA        MD0118PA00X-028248Y-001673X0236Y0000R000S1557371987
317ET-(LDO1-VOUT)   VIA        MD0118PA00X-039862Y-005027X0236Y0000R000S1557371987
317ET-(LDO1-VOUT)   VIA        MD0118PA00X-040157Y-003748X0236Y0000R000S1557371987
317/S3-SPI3-CS0     VIA        MD0118PA00X-017840Y-003076X0236Y0000R000S1557371987
317/S3-SPI3-CS0     VIA        MD0118PA00X-017224Y-006201X0236Y0000R000S1557371987
317/S3-SPI3-MOSI    VIA        MD0118PA00X-017982Y-003809X0236Y0000R000S1557371987
317/S3-SPI3-MOSI    VIA        MD0118PA00X-017618Y-006201X0236Y0000R000S1557371987
317/S3-SPI3-MISO    VIA        MD0118PA00X-019835Y-002657X0236Y0000R000S1557371987
317/S3-SPI3-MISO    VIA        MD0118PA00X-020866Y-006594X0236Y0000R000S1557371987
317VSPI-TFT-RESET   VIA        MD0118PA00X-029429Y+003445X0236Y0000R000S1557371987
317/VSPI-MOSI       VIA        MD0118PA00X-033268Y+000984X0236Y0000R000S1557371987
317/VSPI-MOSI       VIA        MD0118PA00X-034685Y-001969X0236Y0000R000S1557371987
317/VSPI-MOSI       VIA        MD0118PA00X-032579Y+001476X0236Y0000R000S1557371987
317/VSPI-DC         VIA        MD0118PA00X-031594Y+003346X0236Y0000R000S1557371987
317/VSPI-DC         VIA        MD0118PA00X-032185Y-000591X0236Y0000R000S1557371987
317/VSPI-DC         VIA        MD0118PA00X-034744Y-000886X0236Y0000R000S1557371987
317/VSPI-DC         VIA        MD0118PA00X-031890Y+002165X0236Y0000R000S1557371987
317/VSPI-DC         VIA        MD0118PA00X-032933Y-000886X0236Y0000R000S1557371987
317/VSPI-SCLK       VIA        MD0118PA00X-033504Y-003346X0236Y0000R000S1557371987
317/VSPI-MISO       VIA        MD0118PA00X-030020Y+004724X0236Y0000R000S1557371987
317/VSPI-MISO       VIA        MD0118PA00X-031201Y+006693X0236Y0000R000S1557371987
317/VSPI-MISO       VIA        MD0118PA00X-035630Y+008268X0236Y0000R000S1557371987
317/VSPI-CS         VIA        MD0118PA00X-028952Y+003376X0236Y0000R000S1557371987
317/S3-MTMS         VIA        MD0118PA00X-016929Y-004823X0236Y0000R000S1557371987
317/S3-MTDI         VIA        MD0118PA00X-016634Y-004429X0236Y0000R000S1557371987
317/S3-MTCK         VIA        MD0118PA00X-018858Y-004921X0236Y0000R000S1557371987
317/RTS-SCI         VIA        MD0118PA00X-020177Y+009646X0236Y0000R000S1557371987
317/RTS-SCI         VIA        MD0118PA00X-023921Y+013289X0236Y0000R000S1557371987
317/DTR-SCI         VIA        MD0118PA00X-020177Y+008465X0236Y0000R000S1557371987
317/DTR-SCI         VIA        MD0118PA00X-021594Y+010039X0236Y0000R000S1557371987
317/DTR-SCI         VIA        MD0118PA00X-021102Y+008465X0236Y0000R000S1557371987
317/DTR-SCI         VIA        MD0118PA00X-024606Y+013484X0236Y0000R000S1557371987
317/RTS-ECI         VIA        MD0118PA00X-021042Y+012106X0236Y0000R000S1557371987
317/RTS-ECI         VIA        MD0118PA00X-021358Y+013189X0236Y0000R000S1557371987
317/DTR-ECI         VIA        MD0118PA00X-022146Y+013780X0236Y0000R000S1557371987
317/DTR-ECI         VIA        MD0118PA00X-020118Y+010060X0236Y0000R000S1557371987
317/DTR-ECI         VIA        MD0118PA00X-022736Y+013386X0236Y0000R000S1557371987
317NET-(Q4-G)       VIA        MD0118PA00X-023622Y+013189X0236Y0000R000S1557371987
317NET-(Q4-G)       VIA        MD0118PA00X-023031Y+015846X0236Y0000R000S1557371987
317CC1              VIA        MD0118PA00X-014760Y+013189X0236Y0000R000S1557371987
317CC1              VIA        MD0118PA00X-015551Y+009350X0236Y0000R000S1557371987
317CC2              VIA        MD0118PA00X-015846Y+010827X0236Y0000R000S1557371987
317CC2              VIA        MD0118PA00X-013780Y+012894X0236Y0000R000S1557371987
317/S3-RESETSUB     VIA        MD0118PA00X-015059Y+002076X0236Y0000R000S1557371987
317/S3-RESETSUB     VIA        MD0118PA00X-016240Y+000689X0236Y0000R000S1557371987
317/S3-I2C1-SDA     VIA        MD0118PA00X-022421Y-009547X0236Y0000R000S1557371987
317/S3-I2C1-SDA     VIA        MD0118PA00X-021252Y-003551X0236Y0000R000S1557371987
317/S3-I2C1-SDA     VIA        MD0118PA00X-022343Y-005512X0236Y0000R000S1557371987
317/S3-I2C1-SCL     VIA        MD0118PA00X-022736Y-009744X0236Y0000R000S1557371987
317/S3-I2C2-SDA     VIA        MD0118PA00X-022638Y-004331X0236Y0000R000S1557371987
317/S3-I2C2-SDA     VIA        MD0118PA00X-022638Y-005118X0236Y0000R000S1557371987
317/S3-I2C2-SDA     VIA        MD0118PA00X-022913Y-009154X0236Y0000R000S1557371987
317/S3-I2C2-SCL     VIA        MD0118PA00X-023228Y-009154X0236Y0000R000S1557371987
317/S3-USB-PWSW     VIA        MD0118PA00X-015354Y-006201X0236Y0000R000S1557371987
317/S3-USB-PWSW     VIA        MD0118PA00X-026280Y-007087X0236Y0000R000S1557371987
317T-(U10-~{FLT})   VIA        MD0118PA00X-026673Y-007579X0236Y0000R000S1557371987
317T-(U10-~{FLT})   VIA        MD0118PA00X-029823Y-007579X0236Y0000R000S1557371987
317/S3-STATLED1     VIA        MD0118PA00X-012795Y+004921X0236Y0000R000S1557371987
317/S3-STATLED1     VIA        MD0118PA00X-016339Y+001969X0236Y0000R000S1557371987
317/S3-BUTTONUP     VIA        MD0118PA00X-020610Y+000000X0236Y0000R000S1557371987
317/S3-BUTTONUP     VIA        MD0118PA00X-024074Y+005650X0236Y0000R000S1557371987
317/S3-BUTTONDOWN   VIA        MD0118PA00X-022343Y+005610X0236Y0000R000S1557371987
317/S3-BUTTONDOWN   VIA        MD0118PA00X-041732Y+012008X0236Y0000R000S1557371987
317/S3-BUTTONDOWN   VIA        MD0118PA00X-036024Y+011516X0236Y0000R000S1557371987
317/S3-BUTTONDOWN   VIA        MD0118PA00X-021594Y+003150X0236Y0000R000S1557371987
317S3-BUTTONENTER   VIA        MD0118PA00X-043898Y+012894X0236Y0000R000S1557371987
317S3-BUTTONENTER   VIA        MD0118PA00X-043898Y+010335X0236Y0000R000S1557371987
317S3-BUTTONENTER   VIA        MD0118PA00X-021752Y+002657X0236Y0000R000S1557371987
317S3-BUTTONENTER   VIA        MD0118PA00X-023228Y+005807X0236Y0000R000S1557371987
317S3-BUTTONENTER   VIA        MD0118PA00X-041732Y+014764X0236Y0000R000S1557371987
317S3-BUTTONENTER   VIA        MD0118PA00X-036024Y+014173X0236Y0000R000S1557371987
3173-BUTTONCANCEL   VIA        MD0118PA00X-023553Y+005798X0236Y0000R000S1557371987
3173-BUTTONCANCEL   VIA        MD0118PA00X-041732Y+013484X0236Y0000R000S1557371987
3173-BUTTONCANCEL   VIA        MD0118PA00X-036024Y+012992X0236Y0000R000S1557371987
3173-BUTTONCANCEL   VIA        MD0118PA00X-023524Y+002953X0236Y0000R000S1557371987
317/S3-SD-CD        VIA        MD0118PA00X-021654Y-011220X0236Y0000R000S1557371987
317/S3-SD-CD        VIA        MD0118PA00X-021161Y-010039X0236Y0000R000S1557371987
317/S3-SPI3-SCLK    VIA        MD0118PA00X-019193Y-006693X0236Y0000R000S1557371987
317/S3-SPI3-SCLK    VIA        MD0118PA00X-019193Y-003051X0236Y0000R000S1557371987
317/WR-I2S-WS       VIA        MD0118PA00X-033563Y-002657X0236Y0000R000S1557371987
317/WR-I2S-WS       VIA        MD0118PA00X-035335Y-003543X0236Y0000R000S1557371987
317/RXD-SCI         VIA        MD0118PA00X-027756Y+002362X0236Y0000R000S1557371987
317/RXD-SCI         VIA        MD0118PA00X-020177Y+009154X0236Y0000R000S1557371987
317/TXD-SCI         VIA        MD0118PA00X-026280Y+002854X0236Y0000R000S1557371987
317/TXD-SCI         VIA        MD0118PA00X-020177Y+008780X0236Y0000R000S1557371987
317/RXD-ECI         VIA        MD0118PA00X-017801Y+000253X0236Y0000R000S1557371987
317/RXD-ECI         VIA        MD0118PA00X-021122Y+003839X0236Y0000R000S1557371987
317/RXD-ECI         VIA        MD0118PA00X-018110Y+002205X0236Y0000R000S1557371987
317/RXD-ECI         VIA        MD0118PA00X-021122Y+005807X0236Y0000R000S1557371987
317/TXD-ECI         VIA        MD0118PA00X-020472Y+005807X0236Y0000R000S1557371987
317/TXD-ECI         VIA        MD0118PA00X-020768Y+003937X0236Y0000R000S1557371987
317/TXD-ECI         VIA        MD0118PA00X-017520Y+000394X0236Y0000R000S1557371987
317/TXD-ECI         VIA        MD0118PA00X-018110Y+002520X0236Y0000R000S1557371987
317/S3-USB-D-       VIA        MD0118PA00X-026772Y-011614X0236Y0000R000S1557371987
317/S3-USB-D-       VIA        MD0118PA00X-020945Y+000098X0236Y0000R000S1557371987
317/S3-USB-D-       VIA        MD0118PA00X-023125Y-003293X0236Y0000R000S1557371987
317/S3-USB-D+       VIA        MD0118PA00X-021260Y+000098X0236Y0000R000S1557371987
317/S3-USB-D+       VIA        MD0118PA00X-023327Y-003051X0236Y0000R000S1557371987
317D-               VIA        MD0118PA00X-014558Y+009646X0236Y0000R000S1557371987
317D-               VIA        MD0118PA00X-014558Y+010039X0236Y0000R000S1557371987
317D+               VIA        MD0118PA00X-015551Y+009646X0236Y0000R000S1557371987
317D+               VIA        MD0118PA00X-015551Y+010247X0236Y0000R000S1557371987
317D+               VIA        MD0118PA00X-015846Y+009646X0236Y0000R000S1557371987
317D+               VIA        MD0118PA00X-016723Y+010737X0236Y0000R000S1557371987
327NET-(U10-OUT)    R36   -1          A01X-031624Y-011811X0315Y0374R000S2
327NET-(D3-A)       R36   -2          A01X-030974Y-011811X0315Y0374R000S2
327GND              D3    -1          A01X-031609Y-012500X0344Y0374R000S2
327NET-(D3-A)       D3    -2          A01X-030989Y-012500X0344Y0374R000S2
317/WR-IO36         J1    -1    D0394PA00X-036303Y+008858X0669Y0669R090S0
317/WR-IO39         J1    -2    D0394PA00X-037303Y+008858X0669Y0000R090S0
317/WR-IO34         J1    -3    D0394PA00X-038303Y+008858X0669Y0000R090S0
317/WR-IO35         J1    -4    D0394PA00X-039303Y+008858X0669Y0000R090S0
327/S3-RESETSUB     R12   -1          A01X-022116Y+010236X0315Y0374R180S2
327/WR-EN           R12   -2          A01X-022766Y+010236X0315Y0374R180S2
327GND              C5    -1          A01X-017815Y+011722X0354Y0374R090S2
327NET-(U3-VDD)     C5    -2          A01X-017815Y+011112X0354Y0374R090S2
327+3V3             C36   -1          A01X-036309Y+003642X0354Y0374R180S2
327GND              C36   -2          A01X-036919Y+003642X0354Y0374R180S2
327GND              SW4   -1          A01X-015650Y+016508X0484Y0591R090S2
327/WR-EN           SW4   -2          A01X-015650Y+014791X0484Y0591R090S2
327GND              C10   -1          A01X-041644Y-013484X0354Y0374R000S2
327VSYS             C10   -2          A01X-041033Y-013484X0354Y0374R000S2
367N/C              USBC1       D0295UA00X-014551Y+008799X0295Y0000R270S0
367N/C              USBC1       D0295UA00X-014551Y+011083X0295Y0000R270S0
317GND              USBC1 -1    D0315PA00X-014748Y+011646X0472Y0787R270S0
317GND              USBC1 -2    D0315PA00X-013102Y+011646X0472Y0709R270S0
317GND              USBC1 -3    D0315PA00X-013102Y+008236X0472Y0709R270S0
317GND              USBC1 -4    D0315PA00X-014748Y+008236X0472Y0787R270S0
327GND              USBC1 -A1B1       A01X-015047Y+008681X0004Y0004R270S2
327VBUS             USBC1 -A4B9       A01X-015047Y+008996X0004Y0004R270S2
327CC1              USBC1 -A5         A01X-015047Y+009449X0118Y0512R270S2
327D+               USBC1 -A6         A01X-015047Y+009843X0118Y0512R270S2
327D-               USBC1 -A7         A01X-015047Y+010039X0118Y0512R270S2
327C1-SBU1-PADA8)   USBC1 -A8         A01X-015047Y+010433X0118Y0512R270S2
327GND              USBC1 -B1A1       A01X-015047Y+011201X0004Y0004R270S2
327VBUS             USBC1 -B4A9       A01X-015047Y+010886X0004Y0004R270S2
327CC2              USBC1 -B5         A01X-015047Y+010630X0118Y0512R270S2
327D+               USBC1 -B6         A01X-015047Y+010236X0118Y0512R270S2
327D-               USBC1 -B7         A01X-015047Y+009646X0118Y0512R270S2
327C1-SBU2-PADB8)   USBC1 -B8         A01X-015047Y+009252X0118Y0512R270S2
327/S3-BUTTONDOWN   SW8   -1          A01X-046949Y+015945X0551Y0433R090S2
327/S3-BUTTONDOWN   SW8   -2          A01X-046949Y+013386X0551Y0433R090S2
327GND              SW8   -3          A01X-048130Y+015945X0551Y0433R090S2
327GND              SW8   -4          A01X-048130Y+013386X0551Y0433R090S2
327NET-(Q1-G)       Q1    -1          A01X-025074Y+018169X0581Y0236R000S2
327/RTS-SCI         Q1    -2          A01X-025074Y+017421X0581Y0236R000S2
327/WR-EN           Q1    -3          A01X-024336Y+017795X0581Y0236R000S2
327/WR-EN           C7    -1          A01X-020187Y+016535X0354Y0374R000S2
327GND              C7    -2          A01X-019577Y+016535X0354Y0374R000S2
327NET-(U10-OUT)    C14   -1          A01X-029331Y-008071X1421Y0496R180S2
327GND              C14   -2          A01X-031921Y-008071X1421Y0496R180S2
327/S3-I2C1-SCL     R14   -1          A01X-038848Y-012205X0315Y0374R180S2
327+3V3             R14   -2          A01X-039498Y-012205X0315Y0374R180S2
327NET-(Q2-G)       Q2    -1          A01X-025074Y+016201X0581Y0236R000S2
327/DTR-SCI         Q2    -2          A01X-025074Y+015453X0581Y0236R000S2
327/WR-IO0          Q2    -3          A01X-024336Y+015827X0581Y0236R000S2
327+3V3             R8    -1          A01X-023553Y+011417X0315Y0374R000S2
327/WR-EN           R8    -2          A01X-022904Y+011417X0315Y0374R000S2
317/S3-MTCK         P1    -1    D0394PA00X-014075Y-009909X0598Y0000R090S0
317GND              P1    -2    D0394PA00X-013075Y-009909X0598Y0000R090S0
317/S3-MTDO         P1    -3    D0394PA00X-014075Y-010909X0598Y0000R090S0
317+3V3             P1    -4    D0394PA00X-013075Y-010909X0598Y0000R090S0
317/S3-MTMS         P1    -5    D0394PA00X-014075Y-011909X0598Y0000R090S0
317GND              P1    -6    D0394PA00X-013075Y-011909X0598Y0000R090S0
317/S3-MTDI         P1    -7    D0394PA00X-014075Y-012909X0598Y0000R090S0
317CTED-(P1-PAD8)   P1    -8    D0394PA00X-013075Y-012909X0598Y0000R090S0
317GND              P1    -9    D0394PA00X-014075Y-013909X0598Y0000R090S0
317TED-(P1-PAD10)   P1    -10   D0394PA00X-013075Y-013909X0598Y0000R090S0
327NET-(Q2-G)       R4    -1          A01X-025197Y+012697X0315Y0374R000S2
327/RTS-SCI         R4    -2          A01X-024547Y+012697X0315Y0374R000S2
327GND              SW3   -1          A01X-015650Y+018969X0484Y0591R090S2
327/S3-EN           SW3   -2          A01X-015650Y+017252X0484Y0591R090S2
327+3V3             R20   -1          A01X-018504Y-008041X0315Y0374R090S2
327/S3-SPI3-MOSI    R20   -2          A01X-018504Y-008691X0315Y0374R090S2
327NET-(AV1-PAD2)   R28   -1          A01X-040876Y+002657X0315Y0374R000S2
327/WR-NTSC         R28   -2          A01X-040226Y+002657X0315Y0374R000S2
327/S3-SD-CD        R26   -1          A01X-021191Y-009547X0315Y0374R000S2
327+3V3             R26   -2          A01X-020541Y-009547X0315Y0374R000S2
327+3V3             C35   -1          A01X-016240Y+002549X0354Y0374R270S2
327GND              C35   -2          A01X-016240Y+003159X0354Y0374R270S2
327VBUS             R10   -1          A01X-015551Y+007283X0315Y0374R090S2
327ET-(U4-~{FLT})   R10   -2          A01X-015551Y+006634X0315Y0374R090S2
327GND              C9    -1          A01X-015837Y-010925X0354Y0374R180S2
327+3V3             C9    -2          A01X-016447Y-010925X0354Y0374R180S2
327GND              C12   -1          A01X-017116Y+014075X0354Y0374R180S2
327/WR-IO0          C12   -2          A01X-017726Y+014075X0354Y0374R180S2
327GND              C4    -1          A01X-019193Y+012313X0354Y0374R090S2
327VSYS             C4    -2          A01X-019193Y+011703X0354Y0374R090S2
327NET-(AV1-PAD2)   C37   -1          A01X-040856Y+003839X0354Y0374R000S2
327GND              C37   -2          A01X-040246Y+003839X0354Y0374R000S2
317GND              U8    -1    D0315PA00X-041339Y-014424X0512Y0512R000S0
317VSYS             U8    -2    D0315PA00X-040551Y-014424X0512Y0000R000S0
317/S3-I2C1-SDA     U8    -3    D0315PA00X-039764Y-014424X0512Y0000R000S0
317/S3-I2C1-SCL     U8    -4    D0315PA00X-038976Y-014424X0512Y0000R000S0
327NET-(U10-OUT)    U12   -1          A01X-028366Y-011319X0315Y0315R180S2
327GND              U12   -2          A01X-029311Y-011319X0315Y0315R180S2
327GND              C15   -1          A01X-028455Y-006201X0354Y0374R000S2
327VSYS             C15   -2          A01X-027844Y-006201X0354Y0374R000S2
327+3V3             C19   -1          A01X-019085Y-009154X0354Y0374R180S2
327GND              C19   -2          A01X-019695Y-009154X0354Y0374R180S2
327/S3-BUTTONUP     SW6   -1          A01X-046949Y+012402X0551Y0433R090S2
327/S3-BUTTONUP     SW6   -2          A01X-046949Y+009843X0551Y0433R090S2
327GND              SW6   -3          A01X-048130Y+012402X0551Y0433R090S2
327GND              SW6   -4          A01X-048130Y+009843X0551Y0433R090S2
317GND              U9    -1    D0315PA00X-036417Y-014424X0512Y0512R000S0
317VSYS             U9    -2    D0315PA00X-035630Y-014424X0512Y0000R000S0
317/S3-I2C2-SDA     U9    -3    D0315PA00X-034843Y-014424X0512Y0000R000S0
317/S3-I2C2-SCL     U9    -4    D0315PA00X-034055Y-014424X0512Y0000R000S0
327NET-(U13-VNEG)   C30   -1          A01X-041634Y-005126X0354Y0374R270S2
327ET-(U13-CPGND)   C30   -2          A01X-041634Y-004516X0354Y0374R270S2
327/S3-BUTTONUP     R21   -1          A01X-042057Y+011024X0315Y0374R000S2
327+3V3             R21   -2          A01X-041407Y+011024X0315Y0374R000S2
327GND              SW1   -1          A01X-017815Y+018969X0484Y0591R090S2
327/S3-IO0          SW1   -2          A01X-017815Y+017252X0484Y0591R090S2
327+3V3             R11   -1          A01X-025492Y+003770X0315Y0374R090S2
327/SPI-CS0         R11   -2          A01X-025492Y+003120X0315Y0374R090S2
327-(AUDIO1-PAD3)   C32   -1          A01X-045955Y-006988X0354Y0374R180S2
327GND              C32   -2          A01X-046565Y-006988X0354Y0374R180S2
3273-BUTTONCANCEL   SW7   -1          A01X-043898Y+016043X0551Y0433R090S2
3273-BUTTONCANCEL   SW7   -2          A01X-043898Y+013484X0551Y0433R090S2
327GND              SW7   -3          A01X-045079Y+016043X0551Y0433R090S2
327GND              SW7   -4          A01X-045079Y+013484X0551Y0433R090S2
327GND              C6    -1          A01X-018504Y+012313X0354Y0374R090S2
327NET-(U3-VDD)     C6    -2          A01X-018504Y+011703X0354Y0374R090S2
327/S3-I2C2-SCL     R16   -1          A01X-034026Y-012205X0315Y0374R180S2
327+3V3             R16   -2          A01X-034675Y-012205X0315Y0374R180S2
327VSYS             LDO1  -1          A01X-038366Y-008728X0193Y0457R000S2
327GND              LDO1  -2          A01X-037992Y-008728X0193Y0457R000S2
327VSYS             LDO1  -3          A01X-037618Y-008728X0193Y0457R000S2
327(LDO1-NC-PAD4)   LDO1  -4          A01X-037618Y-007823X0193Y0465R000S2
327ET-(LDO1-VOUT)   LDO1  -5          A01X-038366Y-007823X0193Y0465R000S2
327+3V3             R9    -1          A01X-021683Y+014272X0315Y0374R000S2
327/S3-EN           R9    -2          A01X-021033Y+014272X0315Y0374R000S2
367N/C              Card1       D0472UA00X-020551Y-016024X0472Y0000R000S0
367N/C              Card1       D0472UA00X-017402Y-016024X0472Y0000R000S0
327RD1-DAT2-PAD1)   Card1 -1          A01X-017717Y-011693X0276Y0630R000S2
327/S3-SPI3-CS0     Card1 -2          A01X-018150Y-011693X0276Y0630R000S2
327/S3-SPI3-MOSI    Card1 -3          A01X-018583Y-011693X0276Y0630R000S2
327+3V3             Card1 -4          A01X-019016Y-011693X0276Y0630R000S2
327ET-(CARD1-CLX)   Card1 -5          A01X-019449Y-011693X0276Y0630R000S2
327GND              Card1 -6          A01X-019882Y-011693X0276Y0630R000S2
327/S3-SPI3-MISO    Card1 -7          A01X-020315Y-011693X0276Y0630R000S2
327RD1-DAT1-PAD8)   Card1 -8          A01X-020748Y-011693X0276Y0630R000S2
327/S3-SD-CD        Card1 -9          A01X-021181Y-011693X0276Y0630R000S2
327GND              Card1 -10         A01X-021654Y-012087X0472Y0591R000S2
327GND              Card1 -11         A01X-021654Y-015866X0472Y0866R000S2
327GND              Card1 -12         A01X-015551Y-015866X0472Y0866R000S2
327GND              Card1 -13         A01X-015906Y-012087X0630Y0591R000S2
327+3V3             C20   -1          A01X-027746Y+016732X0354Y0374R180S2
327GND              C20   -2          A01X-028356Y+016732X0354Y0374R180S2
327NET-(U13-CAPM)   C29   -1          A01X-039065Y-003453X0354Y0374R180S2
327NET-(U13-CAPP)   C29   -2          A01X-039675Y-003453X0354Y0374R180S2
327D-               U6    -1          A01X-017106Y+010827X0492Y0276R090S2
327D+               U6    -2          A01X-016358Y+010827X0492Y0276R090S2
327GND              U6    -3          A01X-016732Y+011614X0492Y0276R090S2
327+3V3             R35   -1          A01X-013907Y+007283X0315Y0374R000S2
327NET-(D2-A)       R35   -2          A01X-013258Y+007283X0315Y0374R000S2
367N/C              REF**       D1260UA00X-047244Y-015846X1260Y0000R000S0
327GND              C27   -1          A01X-036998Y-002264X0354Y0374R180S2
327+3V3             C27   -2          A01X-037608Y-002264X0354Y0374R180S2
327S3-BUTTONENTER   R23   -1          A01X-042057Y+015354X0315Y0374R000S2
327+3V3             R23   -2          A01X-041407Y+015354X0315Y0374R000S2
327VSYS             C24   -1          A01X-037510Y-009752X0354Y0374R000S2
327GND              C24   -2          A01X-036900Y-009752X0354Y0374R000S2
327NET-(U13-OUTL)   R33   -1          A01X-041900Y-006102X0315Y0374R180S2
327-(AUDIO1-PAD2)   R33   -2          A01X-042549Y-006102X0315Y0374R180S2
327GND              C11   -1          A01X-020187Y+017913X0354Y0374R000S2
327/S3-IO0          C11   -2          A01X-019577Y+017913X0354Y0374R000S2
327VSYS             R18   -1          A01X-031526Y-010630X0315Y0374R000S2
327T-(U10-~{FLT})   R18   -2          A01X-030876Y-010630X0315Y0374R000S2
327VSYS             U4    -1          A01X-017008Y+006836X0522Y0236R270S2
327GND              U4    -2          A01X-016634Y+006836X0522Y0236R270S2
327ET-(U4-~{FLT})   U4    -3          A01X-016260Y+006836X0522Y0236R270S2
327VBUS             U4    -4          A01X-016260Y+007731X0522Y0236R270S2
327VBUS             U4    -5          A01X-017008Y+007731X0522Y0236R270S2
327+3V3             C3    -1          A01X-019488Y+004026X0354Y0374R270S2
